{
  "_format": "hh-sol-artifact-1",
  "contractName": "Holder",
  "sourceName": "contracts/exchange/Holder.sol",
  "abi": [
    {
      "anonymous": false,
      "inputs": [
        {
          "indexed": false,
          "internalType": "bytes32",
          "name": "role",
          "type": "bytes32"
        },
        {
          "indexed": false,
          "internalType": "address",
          "name": "op",
          "type": "address"
        }
      ],
      "name": "GrantAccess",
      "type": "event"
    },
    {
      "anonymous": false,
      "inputs": [
        {
          "indexed": true,
          "internalType": "address",
          "name": "previousOwner",
          "type": "address"
        },
        {
          "indexed": true,
          "internalType": "address",
          "name": "newOwner",
          "type": "address"
        }
      ],
      "name": "OwnershipTransferred",
      "type": "event"
    },
    {
      "anonymous": false,
      "inputs": [
        {
          "indexed": false,
          "internalType": "bytes32",
          "name": "role",
          "type": "bytes32"
        },
        {
          "indexed": false,
          "internalType": "address",
          "name": "op",
          "type": "address"
        }
      ],
      "name": "RevokeAccess",
      "type": "event"
    },
    {
      "inputs": [],
      "name": "EXCHANGE_ROLE",
      "outputs": [
        {
          "internalType": "bytes32",
          "name": "",
          "type": "bytes32"
        }
      ],
      "stateMutability": "view",
      "type": "function"
    },
    {
      "inputs": [
        {
          "internalType": "bytes32",
          "name": "",
          "type": "bytes32"
        }
      ],
      "name": "assetTypes",
      "outputs": [
        {
          "internalType": "enum ExchangeState.AssetType",
          "name": "",
          "type": "uint8"
        }
      ],
      "stateMutability": "view",
      "type": "function"
    },
    {
      "inputs": [
        {
          "internalType": "bytes32",
          "name": "key",
          "type": "bytes32"
        }
      ],
      "name": "get",
      "outputs": [
        {
          "internalType": "enum ExchangeState.AssetType",
          "name": "",
          "type": "uint8"
        }
      ],
      "stateMutability": "view",
      "type": "function"
    },
    {
      "inputs": [
        {
          "internalType": "bytes32",
          "name": "role",
          "type": "bytes32"
        },
        {
          "internalType": "address",
          "name": "operator",
          "type": "address"
        }
      ],
      "name": "grantAccess",
      "outputs": [],
      "stateMutability": "nonpayable",
      "type": "function"
    },
    {
      "inputs": [
        {
          "internalType": "bytes32",
          "name": "role",
          "type": "bytes32"
        }
      ],
      "name": "hasAccess",
      "outputs": [
        {
          "internalType": "bool",
          "name": "",
          "type": "bool"
        }
      ],
      "stateMutability": "view",
      "type": "function"
    },
    {
      "inputs": [
        {
          "internalType": "address",
          "name": "",
          "type": "address"
        },
        {
          "internalType": "address",
          "name": "",
          "type": "address"
        },
        {
          "internalType": "uint256",
          "name": "",
          "type": "uint256"
        },
        {
          "internalType": "bytes",
          "name": "",
          "type": "bytes"
        }
      ],
      "name": "onERC721Received",
      "outputs": [
        {
          "internalType": "bytes4",
          "name": "",
          "type": "bytes4"
        }
      ],
      "stateMutability": "nonpayable",
      "type": "function"
    },
    {
      "inputs": [],
      "name": "owner",
      "outputs": [
        {
          "internalType": "address",
          "name": "",
          "type": "address"
        }
      ],
      "stateMutability": "view",
      "type": "function"
    },
    {
      "inputs": [],
      "name": "renounceOwnership",
      "outputs": [],
      "stateMutability": "nonpayable",
      "type": "function"
    },
    {
      "inputs": [
        {
          "internalType": "bytes32",
          "name": "role",
          "type": "bytes32"
        },
        {
          "internalType": "address",
          "name": "op",
          "type": "address"
        }
      ],
      "name": "revokeAccess",
      "outputs": [],
      "stateMutability": "nonpayable",
      "type": "function"
    },
    {
      "inputs": [
        {
          "internalType": "bytes32",
          "name": "key",
          "type": "bytes32"
        },
        {
          "internalType": "enum ExchangeState.AssetType",
          "name": "assetType",
          "type": "uint8"
        }
      ],
      "name": "set",
      "outputs": [],
      "stateMutability": "nonpayable",
      "type": "function"
    },
    {
      "inputs": [
        {
          "internalType": "address",
          "name": "newOwner",
          "type": "address"
        }
      ],
      "name": "transferOwnership",
      "outputs": [],
      "stateMutability": "nonpayable",
      "type": "function"
    }
  ],
  "bytecode": "0x608060405234801561001057600080fd5b5061001a3361001f565b61006f565b600080546001600160a01b038381166001600160a01b0319831681178455604051919092169283917f8be0079c531659141344cd1fd0a4f28419497f9722a3daafe3b4186f6b6457e09190a35050565b6107bc8061007e6000396000f3fe608060405234801561001057600080fd5b50600436106100a95760003560e01c8063715018a611610071578063715018a6146101775780638d53b2081461017f5780638da5cb5b146101925780638eaa6ac0146101ad578063db83423d146101d0578063f2fde38b1461021257600080fd5b8063150b7a02146100ae5780633b734501146100ea57806340554c3a1461011f57806343ebe289146101345780636936f22514610164575b600080fd5b6100cc6100bc3660046105a8565b630a85bd0160e11b949350505050565b6040516001600160e01b031990911681526020015b60405180910390f35b6101117f28d62fc77014de57a1bbaa8212ff0979fa61ab00d377b4b8d9762048fb41996181565b6040519081526020016100e1565b61013261012d36600461069d565b610225565b005b610157610142366004610684565b60026020526000908152604090205460ff1681565b6040516100e191906106fd565b6101326101723660046106c9565b610266565b610132610351565b61013261018d36600461069d565b610387565b6000546040516001600160a01b0390911681526020016100e1565b6101576101bb366004610684565b60009081526002602052604090205460ff1690565b6102026101de366004610684565b60009081526001602081815260408084203385529091529091205460ff1615151490565b60405190151581526020016100e1565b610132610220366004610586565b61041a565b6000546001600160a01b031633146102585760405162461bcd60e51b815260040161024f90610725565b60405180910390fd5b61026282826104b5565b5050565b3360009081527fd6a47398e9e40c2f8aefc54126052a60bd7bece7c5d3541d83ca10062232f4f260205260409020547f28d62fc77014de57a1bbaa8212ff0979fa61ab00d377b4b8d9762048fb4199619060ff1615156001146103175760405162461bcd60e51b815260206004820152602360248201527f50726f78794163636573733a2063616c6c6572206e6f7420686176652061636360448201526265737360e81b606482015260840161024f565b60008381526002602081905260409091208054849260ff199091169060019084908111156103475761034761075a565b0217905550505050565b6000546001600160a01b0316331461037b5760405162461bcd60e51b815260040161024f90610725565b610385600061051a565b565b6000546001600160a01b031633146103b15760405162461bcd60e51b815260040161024f90610725565b60008281526001602090815260408083206001600160a01b03851680855290835292819020805460ff191690558051858152918201929092527fc741014471ca09255f0d4e94d613614ecda9600bf3f62dfe07f7f0625295937791015b60405180910390a15050565b6000546001600160a01b031633146104445760405162461bcd60e51b815260040161024f90610725565b6001600160a01b0381166104a95760405162461bcd60e51b815260206004820152602660248201527f4f776e61626c653a206e6577206f776e657220697320746865207a65726f206160448201526564647265737360d01b606482015260840161024f565b6104b28161051a565b50565b60008281526001602081815260408084206001600160a01b03861680865290835293819020805460ff19169093179092558151858152908101929092527fd1d8da25c55265be24662c7f358eccc54cc8aa4e2251c1f90ff83ea4b7d0507c910161040e565b600080546001600160a01b038381166001600160a01b0319831681178455604051919092169283917f8be0079c531659141344cd1fd0a4f28419497f9722a3daafe3b4186f6b6457e09190a35050565b80356001600160a01b038116811461058157600080fd5b919050565b60006020828403121561059857600080fd5b6105a18261056a565b9392505050565b600080600080608085870312156105be57600080fd5b6105c78561056a565b93506105d56020860161056a565b925060408501359150606085013567ffffffffffffffff808211156105f957600080fd5b818701915087601f83011261060d57600080fd5b81358181111561061f5761061f610770565b604051601f8201601f19908116603f0116810190838211818310171561064757610647610770565b816040528281528a602084870101111561066057600080fd5b82602086016020830137600060208483010152809550505050505092959194509250565b60006020828403121561069657600080fd5b5035919050565b600080604083850312156106b057600080fd5b823591506106c06020840161056a565b90509250929050565b600080604083850312156106dc57600080fd5b823591506020830135600381106106f257600080fd5b809150509250929050565b602081016003831061071f57634e487b7160e01b600052602160045260246000fd5b91905290565b6020808252818101527f4f776e61626c653a2063616c6c6572206973206e6f7420746865206f776e6572604082015260600190565b634e487b7160e01b600052602160045260246000fd5b634e487b7160e01b600052604160045260246000fdfea264697066735822122095b0ee8270fc330461cb1da70714484a5138282e9f735fcc97256f78c0a555d264736f6c63430008050033",
  "linkReferences": {},
  "deployedLinkReferences": {}
}