{
  "_format": "hh-sol-artifact-1",
  "contractName": "TransferProxy",
  "sourceName": "contracts/proxy/TransferProxy.sol",
  "abi": [
    {
      "anonymous": false,
      "inputs": [
        {
          "indexed": true,
          "internalType": "address",
          "name": "op",
          "type": "address"
        }
      ],
      "name": "AddOperator",
      "type": "event"
    },
    {
      "anonymous": false,
      "inputs": [
        {
          "indexed": true,
          "internalType": "address",
          "name": "previousOwner",
          "type": "address"
        },
        {
          "indexed": true,
          "internalType": "address",
          "name": "newOwner",
          "type": "address"
        }
      ],
      "name": "OwnershipTransferred",
      "type": "event"
    },
    {
      "anonymous": false,
      "inputs": [
        {
          "indexed": true,
          "internalType": "address",
          "name": "op",
          "type": "address"
        }
      ],
      "name": "RemoveOperator",
      "type": "event"
    },
    {
      "inputs": [
        {
          "internalType": "address",
          "name": "op",
          "type": "address"
        }
      ],
      "name": "add",
      "outputs": [],
      "stateMutability": "nonpayable",
      "type": "function"
    },
    {
      "inputs": [
        {
          "internalType": "contract IERC721",
          "name": "erc721",
          "type": "address"
        },
        {
          "internalType": "address",
          "name": "from",
          "type": "address"
        },
        {
          "internalType": "address",
          "name": "to",
          "type": "address"
        },
        {
          "internalType": "uint256",
          "name": "tokenId",
          "type": "uint256"
        }
      ],
      "name": "erc721SafeTransfer",
      "outputs": [],
      "stateMutability": "nonpayable",
      "type": "function"
    },
    {
      "inputs": [
        {
          "internalType": "address",
          "name": "op",
          "type": "address"
        }
      ],
      "name": "isOperator",
      "outputs": [
        {
          "internalType": "bool",
          "name": "",
          "type": "bool"
        }
      ],
      "stateMutability": "view",
      "type": "function"
    },
    {
      "inputs": [],
      "name": "owner",
      "outputs": [
        {
          "internalType": "address",
          "name": "",
          "type": "address"
        }
      ],
      "stateMutability": "view",
      "type": "function"
    },
    {
      "inputs": [
        {
          "internalType": "address",
          "name": "op",
          "type": "address"
        }
      ],
      "name": "remove",
      "outputs": [],
      "stateMutability": "nonpayable",
      "type": "function"
    },
    {
      "inputs": [],
      "name": "renounceOwnership",
      "outputs": [],
      "stateMutability": "nonpayable",
      "type": "function"
    },
    {
      "inputs": [
        {
          "internalType": "address",
          "name": "newOwner",
          "type": "address"
        }
      ],
      "name": "transferOwnership",
      "outputs": [],
      "stateMutability": "nonpayable",
      "type": "function"
    }
  ],
  "bytecode": "0x608060405234801561001057600080fd5b5061001a3361001f565b61006f565b600080546001600160a01b038381166001600160a01b0319831681178455604051919092169283917f8be0079c531659141344cd1fd0a4f28419497f9722a3daafe3b4186f6b6457e09190a35050565b6105a18061007e6000396000f3fe608060405234801561001057600080fd5b506004361061007d5760003560e01c8063715018a61161005b578063715018a6146100f15780638da5cb5b146100f9578063f2fde38b14610114578063fc25badb1461012757600080fd5b80630a3b0a4f1461008257806329092d0e146100975780636d70f7ae146100aa575b600080fd5b6100956100903660046104ac565b61013a565b005b6100956100a53660046104ac565b6101bc565b6100dc6100b83660046104ac565b6001600160a01b031660009081526001602081905260409091205460ff1615151490565b60405190151581526020015b60405180910390f35b6100956102b2565b6000546040516001600160a01b0390911681526020016100e8565b6100956101223660046104ac565b6102e8565b6100956101353660046104d0565b610383565b6000546001600160a01b0316331461016d5760405162461bcd60e51b815260040161016490610521565b60405180910390fd5b6001600160a01b0381166000818152600160208190526040808320805460ff1916909217909155517f4c141abccf173677929dea054f218ed87362117834a8869ec9f68d8bdaaea1dc9190a250565b6000546001600160a01b031633146101e65760405162461bcd60e51b815260040161016490610521565b6001600160a01b03811660009081526001602081905260409091205460ff161515146102695760405162461bcd60e51b815260206004820152602c60248201527f4f776e61626c654f70657261746f72526f6c653a2074686973206973206e6f7460448201526b1030b71037b832b930ba37b960a11b6064820152608401610164565b6001600160a01b038116600081815260016020526040808220805460ff19169055517f6b4be2dd49eba45ba43390fbe7da13e2b965d255db41d6a0fcf6d2e15ac1fccb9190a250565b6000546001600160a01b031633146102dc5760405162461bcd60e51b815260040161016490610521565b6102e6600061045c565b565b6000546001600160a01b031633146103125760405162461bcd60e51b815260040161016490610521565b6001600160a01b0381166103775760405162461bcd60e51b815260206004820152602660248201527f4f776e61626c653a206e6577206f776e657220697320746865207a65726f206160448201526564647265737360d01b6064820152608401610164565b6103808161045c565b50565b61038c336100b8565b6103ec5760405162461bcd60e51b815260206004820152602b60248201527f4f776e61626c654f70657261746f72526f6c653a2063616c6c6572206973206e60448201526a37ba1037b832b930ba37b960a91b6064820152608401610164565b604051632142170760e11b81526001600160a01b0384811660048301528381166024830152604482018390528516906342842e0e90606401600060405180830381600087803b15801561043e57600080fd5b505af1158015610452573d6000803e3d6000fd5b5050505050505050565b600080546001600160a01b038381166001600160a01b0319831681178455604051919092169283917f8be0079c531659141344cd1fd0a4f28419497f9722a3daafe3b4186f6b6457e09190a35050565b6000602082840312156104be57600080fd5b81356104c981610556565b9392505050565b600080600080608085870312156104e657600080fd5b84356104f181610556565b9350602085013561050181610556565b9250604085013561051181610556565b9396929550929360600135925050565b6020808252818101527f4f776e61626c653a2063616c6c6572206973206e6f7420746865206f776e6572604082015260600190565b6001600160a01b038116811461038057600080fdfea2646970667358221220d897730f46e26a48381242d3466d99a5635e917a7225d0d790b23887465f114f64736f6c63430008050033",
  "linkReferences": {},
  "deployedLinkReferences": {}
}