{
  "_format": "hh-sol-artifact-1",
  "contractName": "ERC721Default",
  "sourceName": "contracts/token/ERC721Default.sol",
  "abi": [
    {
      "anonymous": false,
      "inputs": [
        {
          "indexed": true,
          "internalType": "address",
          "name": "previousOwner",
          "type": "address"
        },
        {
          "indexed": true,
          "internalType": "address",
          "name": "newOwner",
          "type": "address"
        }
      ],
      "name": "OwnershipTransferred",
      "type": "event"
    },
    {
      "inputs": [
        {
          "internalType": "string",
          "name": "tokenUri",
          "type": "string"
        }
      ],
      "name": "mint",
      "outputs": [],
      "stateMutability": "nonpayable",
      "type": "function"
    },
    {
      "inputs": [],
      "name": "owner",
      "outputs": [
        {
          "internalType": "address",
          "name": "",
          "type": "address"
        }
      ],
      "stateMutability": "view",
      "type": "function"
    },
    {
      "inputs": [],
      "name": "renounceOwnership",
      "outputs": [],
      "stateMutability": "nonpayable",
      "type": "function"
    },
    {
      "inputs": [
        {
          "internalType": "address",
          "name": "_erc721",
          "type": "address"
        }
      ],
      "name": "setDefault",
      "outputs": [],
      "stateMutability": "nonpayable",
      "type": "function"
    },
    {
      "inputs": [
        {
          "internalType": "address",
          "name": "newOwner",
          "type": "address"
        }
      ],
      "name": "transferOwnership",
      "outputs": [],
      "stateMutability": "nonpayable",
      "type": "function"
    }
  ],
  "bytecode": "0x608060405234801561001057600080fd5b5061001a3361001f565b61006f565b600080546001600160a01b038381166001600160a01b0319831681178455604051919092169283917f8be0079c531659141344cd1fd0a4f28419497f9722a3daafe3b4186f6b6457e09190a35050565b61049a8061007e6000396000f3fe608060405234801561001057600080fd5b50600436106100575760003560e01c8063715018a61461005c5780638da5cb5b14610066578063d85d3d2714610085578063e823d5cf14610098578063f2fde38b146100ab575b600080fd5b6100646100be565b005b600054604080516001600160a01b039092168252519081900360200190f35b6100646100933660046102ea565b6100fd565b6100646100a63660046102ba565b610183565b6100646100b93660046102ba565b6101cf565b6000546001600160a01b031633146100f15760405162461bcd60e51b81526004016100e890610419565b60405180910390fd5b6100fb600061026a565b565b6001546001600160a01b031663d0def52133836040518363ffffffff1660e01b815260040161012d9291906103b4565b602060405180830381600087803b15801561014757600080fd5b505af115801561015b573d6000803e3d6000fd5b505050506040513d601f19601f8201168201806040525081019061017f919061039b565b5050565b6000546001600160a01b031633146101ad5760405162461bcd60e51b81526004016100e890610419565b600180546001600160a01b0319166001600160a01b0392909216919091179055565b6000546001600160a01b031633146101f95760405162461bcd60e51b81526004016100e890610419565b6001600160a01b03811661025e5760405162461bcd60e51b815260206004820152602660248201527f4f776e61626c653a206e6577206f776e657220697320746865207a65726f206160448201526564647265737360d01b60648201526084016100e8565b6102678161026a565b50565b600080546001600160a01b038381166001600160a01b0319831681178455604051919092169283917f8be0079c531659141344cd1fd0a4f28419497f9722a3daafe3b4186f6b6457e09190a35050565b6000602082840312156102cc57600080fd5b81356001600160a01b03811681146102e357600080fd5b9392505050565b6000602082840312156102fc57600080fd5b813567ffffffffffffffff8082111561031457600080fd5b818401915084601f83011261032857600080fd5b81358181111561033a5761033a61044e565b604051601f8201601f19908116603f011681019083821181831017156103625761036261044e565b8160405282815287602084870101111561037b57600080fd5b826020860160208301376000928101602001929092525095945050505050565b6000602082840312156103ad57600080fd5b5051919050565b60018060a01b038316815260006020604081840152835180604085015260005b818110156103f0578581018301518582016060015282016103d4565b81811115610402576000606083870101525b50601f01601f191692909201606001949350505050565b6020808252818101527f4f776e61626c653a2063616c6c6572206973206e6f7420746865206f776e6572604082015260600190565b634e487b7160e01b600052604160045260246000fdfea2646970667358221220dc82f4b0a2cd30e1fc37eac1136ea3a0f1f28aa33fa87a05bb93c473a1c48f4664736f6c63430008050033",
  "linkReferences": {},
  "deployedLinkReferences": {}
}