{
  "_format": "hh-sol-artifact-1",
  "contractName": "ERC721Default",
  "sourceName": "contracts/token/ERC721Default.sol",
  "abi": [
    {
      "anonymous": false,
      "inputs": [
        {
          "indexed": true,
          "internalType": "address",
          "name": "sender",
          "type": "address"
        },
        {
          "indexed": true,
          "internalType": "uint256",
          "name": "tokenId",
          "type": "uint256"
        }
      ],
      "name": "MintAtDefault",
      "type": "event"
    },
    {
      "anonymous": false,
      "inputs": [
        {
          "indexed": true,
          "internalType": "address",
          "name": "previousOwner",
          "type": "address"
        },
        {
          "indexed": true,
          "internalType": "address",
          "name": "newOwner",
          "type": "address"
        }
      ],
      "name": "OwnershipTransferred",
      "type": "event"
    },
    {
      "inputs": [
        {
          "internalType": "string",
          "name": "tokenUri",
          "type": "string"
        }
      ],
      "name": "mint",
      "outputs": [],
      "stateMutability": "nonpayable",
      "type": "function"
    },
    {
      "inputs": [],
      "name": "owner",
      "outputs": [
        {
          "internalType": "address",
          "name": "",
          "type": "address"
        }
      ],
      "stateMutability": "view",
      "type": "function"
    },
    {
      "inputs": [],
      "name": "renounceOwnership",
      "outputs": [],
      "stateMutability": "nonpayable",
      "type": "function"
    },
    {
      "inputs": [
        {
          "internalType": "address",
          "name": "_erc721",
          "type": "address"
        }
      ],
      "name": "setDefault",
      "outputs": [],
      "stateMutability": "nonpayable",
      "type": "function"
    },
    {
      "inputs": [
        {
          "internalType": "address",
          "name": "newOwner",
          "type": "address"
        }
      ],
      "name": "transferOwnership",
      "outputs": [],
      "stateMutability": "nonpayable",
      "type": "function"
    }
  ],
  "bytecode": "0x608060405234801561001057600080fd5b5061001a3361001f565b61006f565b600080546001600160a01b038381166001600160a01b0319831681178455604051919092169283917f8be0079c531659141344cd1fd0a4f28419497f9722a3daafe3b4186f6b6457e09190a35050565b6104cd8061007e6000396000f3fe608060405234801561001057600080fd5b50600436106100575760003560e01c8063715018a61461005c5780638da5cb5b14610066578063d85d3d2714610085578063e823d5cf14610098578063f2fde38b146100ab575b600080fd5b6100646100be565b005b600054604080516001600160a01b039092168252519081900360200190f35b61006461009336600461031d565b6100fd565b6100646100a63660046102ed565b6101b6565b6100646100b93660046102ed565b610202565b6000546001600160a01b031633146100f15760405162461bcd60e51b81526004016100e89061044c565b60405180910390fd5b6100fb600061029d565b565b60015460405163d0def52160e01b81526000916001600160a01b03169063d0def5219061013090339086906004016103e7565b602060405180830381600087803b15801561014a57600080fd5b505af115801561015e573d6000803e3d6000fd5b505050506040513d601f19601f8201168201806040525081019061018291906103ce565b604051909150819033907fdf9997e40c13a604946085714e64157b08264653dc7643d9198788cfc63aff5790600090a35050565b6000546001600160a01b031633146101e05760405162461bcd60e51b81526004016100e89061044c565b600180546001600160a01b0319166001600160a01b0392909216919091179055565b6000546001600160a01b0316331461022c5760405162461bcd60e51b81526004016100e89061044c565b6001600160a01b0381166102915760405162461bcd60e51b815260206004820152602660248201527f4f776e61626c653a206e6577206f776e657220697320746865207a65726f206160448201526564647265737360d01b60648201526084016100e8565b61029a8161029d565b50565b600080546001600160a01b038381166001600160a01b0319831681178455604051919092169283917f8be0079c531659141344cd1fd0a4f28419497f9722a3daafe3b4186f6b6457e09190a35050565b6000602082840312156102ff57600080fd5b81356001600160a01b038116811461031657600080fd5b9392505050565b60006020828403121561032f57600080fd5b813567ffffffffffffffff8082111561034757600080fd5b818401915084601f83011261035b57600080fd5b81358181111561036d5761036d610481565b604051601f8201601f19908116603f0116810190838211818310171561039557610395610481565b816040528281528760208487010111156103ae57600080fd5b826020860160208301376000928101602001929092525095945050505050565b6000602082840312156103e057600080fd5b5051919050565b60018060a01b038316815260006020604081840152835180604085015260005b8181101561042357858101830151858201606001528201610407565b81811115610435576000606083870101525b50601f01601f191692909201606001949350505050565b6020808252818101527f4f776e61626c653a2063616c6c6572206973206e6f7420746865206f776e6572604082015260600190565b634e487b7160e01b600052604160045260246000fdfea264697066735822122098dc8bbbd1ce4130b7c0137a49e3f08ac60854169d1082d81ea86d9f19c7ba8964736f6c63430008050033",
  "linkReferences": {},
  "deployedLinkReferences": {}
}