{
  "_format": "hh-sol-artifact-1",
  "contractName": "ExchangeSell",
  "sourceName": "contracts/exchange/ExchangeSell.sol",
  "abi": [
    {
      "inputs": [
        {
          "internalType": "address",
          "name": "_transfer",
          "type": "address"
        },
        {
          "internalType": "address",
          "name": "_holder",
          "type": "address"
        }
      ],
      "stateMutability": "nonpayable",
      "type": "constructor"
    },
    {
      "anonymous": false,
      "inputs": [
        {
          "indexed": true,
          "internalType": "address",
          "name": "token",
          "type": "address"
        },
        {
          "indexed": true,
          "internalType": "uint256",
          "name": "tokenId",
          "type": "uint256"
        }
      ],
      "name": "DelistAsset",
      "type": "event"
    },
    {
      "anonymous": false,
      "inputs": [
        {
          "indexed": true,
          "internalType": "address",
          "name": "token",
          "type": "address"
        },
        {
          "indexed": true,
          "internalType": "uint256",
          "name": "tokenId",
          "type": "uint256"
        }
      ],
      "name": "ListAsset",
      "type": "event"
    },
    {
      "anonymous": false,
      "inputs": [
        {
          "indexed": true,
          "internalType": "address",
          "name": "previousOwner",
          "type": "address"
        },
        {
          "indexed": true,
          "internalType": "address",
          "name": "newOwner",
          "type": "address"
        }
      ],
      "name": "OwnershipTransferred",
      "type": "event"
    },
    {
      "anonymous": false,
      "inputs": [
        {
          "indexed": false,
          "internalType": "bytes32",
          "name": "assetKey",
          "type": "bytes32"
        },
        {
          "indexed": false,
          "internalType": "address",
          "name": "buyer",
          "type": "address"
        },
        {
          "indexed": false,
          "internalType": "uint256",
          "name": "amount",
          "type": "uint256"
        }
      ],
      "name": "Purchase",
      "type": "event"
    },
    {
      "anonymous": false,
      "inputs": [
        {
          "indexed": false,
          "internalType": "uint256",
          "name": "amount",
          "type": "uint256"
        },
        {
          "indexed": false,
          "internalType": "address",
          "name": "sender",
          "type": "address"
        }
      ],
      "name": "Receive",
      "type": "event"
    },
    {
      "anonymous": false,
      "inputs": [
        {
          "indexed": false,
          "internalType": "uint256",
          "name": "amount",
          "type": "uint256"
        },
        {
          "indexed": false,
          "internalType": "address",
          "name": "caller",
          "type": "address"
        }
      ],
      "name": "Withdraw",
      "type": "event"
    },
    {
      "inputs": [],
      "name": "LOWEST_PRICE",
      "outputs": [
        {
          "internalType": "uint256",
          "name": "",
          "type": "uint256"
        }
      ],
      "stateMutability": "view",
      "type": "function"
    },
    {
      "inputs": [],
      "name": "TX_FEE",
      "outputs": [
        {
          "internalType": "uint256",
          "name": "",
          "type": "uint256"
        }
      ],
      "stateMutability": "view",
      "type": "function"
    },
    {
      "inputs": [
        {
          "internalType": "bytes32",
          "name": "",
          "type": "bytes32"
        }
      ],
      "name": "assetsSell",
      "outputs": [
        {
          "components": [
            {
              "internalType": "address",
              "name": "token",
              "type": "address"
            },
            {
              "internalType": "address payable",
              "name": "seller",
              "type": "address"
            },
            {
              "internalType": "uint256",
              "name": "tokenId",
              "type": "uint256"
            }
          ],
          "internalType": "struct ExchangeDomain.AssetDomain",
          "name": "domain",
          "type": "tuple"
        },
        {
          "internalType": "uint256",
          "name": "price",
          "type": "uint256"
        }
      ],
      "stateMutability": "view",
      "type": "function"
    },
    {
      "inputs": [],
      "name": "balance",
      "outputs": [
        {
          "internalType": "uint256",
          "name": "",
          "type": "uint256"
        }
      ],
      "stateMutability": "view",
      "type": "function"
    },
    {
      "inputs": [
        {
          "internalType": "address",
          "name": "token",
          "type": "address"
        },
        {
          "internalType": "uint256",
          "name": "tokenId",
          "type": "uint256"
        }
      ],
      "name": "delist",
      "outputs": [],
      "stateMutability": "nonpayable",
      "type": "function"
    },
    {
      "inputs": [],
      "name": "holder",
      "outputs": [
        {
          "internalType": "contract Holder",
          "name": "",
          "type": "address"
        }
      ],
      "stateMutability": "view",
      "type": "function"
    },
    {
      "inputs": [
        {
          "internalType": "address",
          "name": "token",
          "type": "address"
        },
        {
          "internalType": "uint256",
          "name": "tokenId",
          "type": "uint256"
        },
        {
          "internalType": "uint256",
          "name": "price",
          "type": "uint256"
        }
      ],
      "name": "list",
      "outputs": [],
      "stateMutability": "nonpayable",
      "type": "function"
    },
    {
      "inputs": [],
      "name": "owner",
      "outputs": [
        {
          "internalType": "address",
          "name": "",
          "type": "address"
        }
      ],
      "stateMutability": "view",
      "type": "function"
    },
    {
      "inputs": [
        {
          "internalType": "bytes32",
          "name": "assetKey",
          "type": "bytes32"
        }
      ],
      "name": "purchase",
      "outputs": [],
      "stateMutability": "payable",
      "type": "function"
    },
    {
      "inputs": [],
      "name": "renounceOwnership",
      "outputs": [],
      "stateMutability": "nonpayable",
      "type": "function"
    },
    {
      "inputs": [
        {
          "internalType": "address",
          "name": "newOwner",
          "type": "address"
        }
      ],
      "name": "transferOwnership",
      "outputs": [],
      "stateMutability": "nonpayable",
      "type": "function"
    },
    {
      "inputs": [],
      "name": "transferProxy",
      "outputs": [
        {
          "internalType": "contract TransferProxy",
          "name": "",
          "type": "address"
        }
      ],
      "stateMutability": "view",
      "type": "function"
    },
    {
      "inputs": [
        {
          "internalType": "uint256",
          "name": "amount",
          "type": "uint256"
        }
      ],
      "name": "withdraw",
      "outputs": [],
      "stateMutability": "nonpayable",
      "type": "function"
    },
    {
      "stateMutability": "payable",
      "type": "receive"
    }
  ],
  "bytecode": "0x60806040523480156200001157600080fd5b506040516200139c3803806200139c833981016040819052620000349162000140565b62000048620000426200007a565b620000c0565b600380546001600160a01b039384166001600160a01b0319918216179091556004805492909316911617905562000178565b60006200009b336001600160a01b03166200011060201b62000cec1760201c565b15620000a657503290565b620000bb6200011f60201b62000cfb1760201c565b905090565b600080546001600160a01b038381166001600160a01b0319831681178455604051919092169283917f8be0079c531659141344cd1fd0a4f28419497f9722a3daafe3b4186f6b6457e09190a35050565b6001600160a01b03163b151590565b3390565b80516001600160a01b03811681146200013b57600080fd5b919050565b600080604083850312156200015457600080fd5b6200015f8362000123565b91506200016f6020840162000123565b90509250929050565b61121480620001886000396000f3fe6080604052600436106100c65760003560e01c8063b69ef8a81161007f578063de52014b11610059578063de52014b146102d0578063e534155d146102eb578063f074258e1461030b578063f2fde38b1461032b57600080fd5b8063b69ef8a814610287578063cc4456111461029d578063dda342bb146102b057600080fd5b80632e1a7d4d146101345780633bd17aae146101565780636e667db314610184578063715018a6146101bc5780638da5cb5b146101d1578063a620f925146101ef57600080fd5b3661012f5734600160008282546100dd919061116e565b909155507f679c2c72b93b6dbe9187487c5fd3c79f94582c5bfafd6d4e32164038479a225890503461010d61034b565b604080519283526001600160a01b0390911660208301520160405180910390a1005b600080fd5b34801561014057600080fd5b5061015461014f3660046110a3565b61035e565b005b34801561016257600080fd5b5061017166038d7ea4c6800081565b6040519081526020015b60405180910390f35b34801561019057600080fd5b506003546101a4906001600160a01b031681565b6040516001600160a01b03909116815260200161017b565b3480156101c857600080fd5b5061015461052a565b3480156101dd57600080fd5b506000546001600160a01b03166101a4565b3480156101fb57600080fd5b5061025261020a3660046110a3565b600260208181526000928352604092839020835160608101855281546001600160a01b0390811682526001830154169281019290925291820154928101929092526003015482565b6040805183516001600160a01b039081168252602080860151909116908201529281015190830152606082015260800161017b565b34801561029357600080fd5b5061017160015481565b6101546102ab3660046110a3565b61057f565b3480156102bc57600080fd5b506101546102cb36600461106e565b6108be565b3480156102dc57600080fd5b506101716601c6bf5263400081565b3480156102f757600080fd5b506004546101a4906001600160a01b031681565b34801561031757600080fd5b50610154610326366004611042565b610b07565b34801561033757600080fd5b50610154610346366004611008565b610c32565b6000333b1561035957503290565b503390565b61036661034b565b6001600160a01b03166103816000546001600160a01b031690565b6001600160a01b0316146103b05760405162461bcd60e51b81526004016103a790611139565b60405180910390fd5b6001548111156104285760405162461bcd60e51b815260206004820152603960248201527f45786368616e6765436f72652377697468647261773a20616d6f756e74206d7560448201527f7374206265206c6573736572207468616e2062616c616e63650000000000000060648201526084016103a7565b600061043261034b565b6001600160a01b03168260405160006040518083038185875af1925050503d806000811461047c576040519150601f19603f3d011682016040523d82523d6000602084013e610481565b606091505b50509050806104c45760405162461bcd60e51b815260206004820152600f60248201526e15da5d1a191c985dc819985a5b1959608a1b60448201526064016103a7565b81600160008282546104d69190611186565b909155507f8353ffcac0876ad14e226d9783c04540bfebf13871e868157d2a391cad98e91890508261050661034b565b604080519283526001600160a01b0390911660208301520160405180910390a15050565b61053261034b565b6001600160a01b031661054d6000546001600160a01b031690565b6001600160a01b0316146105735760405162461bcd60e51b81526004016103a790611139565b61057d6000610cff565b565b61058881610d4f565b600081815260026020818152604092839020835160a08101855281546001600160a01b0390811695820195865260018301541660608201529281015460808401529282526003909201549181018290529034101561063a5760405162461bcd60e51b815260206004820152602960248201527f45786368616e676553656c6c2370757263686173653a20696e73756666696369604482015268656e742076616c756560b81b60648201526084016103a7565b60405160009030906601c6bf52634000908381818185875af1925050503d8060008114610683576040519150601f19603f3d011682016040523d82523d6000602084013e610688565b606091505b50509050806106cf5760405162461bcd60e51b81526020600482015260136024820152721d1c985b9cd9995c881999594819985a5b1959606a1b60448201526064016103a7565b8151602001516000906001600160a01b03166106f26601c6bf5263400034611186565b604051600081818185875af1925050503d806000811461072e576040519150601f19603f3d011682016040523d82523d6000602084013e610733565b606091505b50509050806107845760405162461bcd60e51b815260206004820152601760248201527f7472616e736665722073656c6c696e67206661696c656400000000000000000060448201526064016103a7565b6003548351516004546001600160a01b039283169263fc25badb9291166107a961034b565b8760000151604001516040518563ffffffff1660e01b81526004016107d1949392919061110f565b600060405180830381600087803b1580156107eb57600080fd5b505af11580156107ff573d6000803e3d6000fd5b505060048054604051636936f22560e01b81526001600160a01b039091169350636936f2259250610835918891600091016110dd565b600060405180830381600087803b15801561084f57600080fd5b505af1158015610863573d6000803e3d6000fd5b505050507f5bf4253a5140b6031616ccab7c283a9340f83b4651e3bd15c4cd975487b97d1a8461089161034b565b604080519283526001600160a01b039091166020830152349082015260600160405180910390a150505050565b60006108ca8484610e3a565b905066038d7ea4c680008210156109355760405162461bcd60e51b815260206004820152602960248201527f45786368616e676553656c6c236c6973743a20617373657420707269636520696044820152687320746f6f206c6f7760b81b60648201526084016103a7565b60006109418585610ecb565b600081815260026020818152604092839020835160a08101855281546001600160a01b039081169582019586526001830154166060820152928101546080840152928252600390920154918101919091529091506109a181878787610f12565b6000838152600260208181526040928390208451805182546001600160a01b03199081166001600160a01b03928316178455828501516001850180549092169083161790559085015193820193909355930151600393840155915460048054925163fc25badb60e01b81529184169363fc25badb93610a2b938c938a9392909216918c910161110f565b600060405180830381600087803b158015610a4557600080fd5b505af1158015610a59573d6000803e3d6000fd5b505060048054604051636936f22560e01b81526001600160a01b039091169350636936f2259250610a8f918691600191016110dd565b600060405180830381600087803b158015610aa957600080fd5b505af1158015610abd573d6000803e3d6000fd5b50508251604080820151915190519193506001600160a01b031691507fc660d6828d55c2244365f237dbb1b82988a490d55541f9be0af6433f3e173ee190600090a3505050505050565b6000610b138383610ecb565b9050610b1e81610d4f565b6003546004546001600160a01b039182169163fc25badb91869116610b4161034b565b866040518563ffffffff1660e01b8152600401610b61949392919061110f565b600060405180830381600087803b158015610b7b57600080fd5b505af1158015610b8f573d6000803e3d6000fd5b505060048054604051636936f22560e01b81526001600160a01b039091169350636936f2259250610bc5918591600091016110dd565b600060405180830381600087803b158015610bdf57600080fd5b505af1158015610bf3573d6000803e3d6000fd5b50506040518492506001600160a01b03861691507f6669773d42e8d2454b0b5ee3d3fc0a788cc916a01323d761e3324089abf4701790600090a3505050565b610c3a61034b565b6001600160a01b0316610c556000546001600160a01b031690565b6001600160a01b031614610c7b5760405162461bcd60e51b81526004016103a790611139565b6001600160a01b038116610ce05760405162461bcd60e51b815260206004820152602660248201527f4f776e61626c653a206e6577206f776e657220697320746865207a65726f206160448201526564647265737360d01b60648201526084016103a7565b610ce981610cff565b50565b6001600160a01b03163b151590565b3390565b600080546001600160a01b038381166001600160a01b0319831681178455604051919092169283917f8be0079c531659141344cd1fd0a4f28419497f9722a3daafe3b4186f6b6457e09190a35050565b60016004805460405163023aa9ab60e61b81529182018490526001600160a01b031690638eaa6ac09060240160206040518083038186803b158015610d9357600080fd5b505afa158015610da7573d6000803e3d6000fd5b505050506040513d601f19601f82011682018060405250810190610dcb91906110bc565b6002811115610ddc57610ddc6111b3565b14610ce95760405162461bcd60e51b815260206004820152602860248201527f45786368616e676553656c6c2364656c6973743a206173736574206973206e6f6044820152671d081b1a5cdd195960c21b60648201526084016103a7565b600080610e478484610f8d565b9050610e5161034b565b6001600160a01b0316816001600160a01b031614610ec45760405162461bcd60e51b815260206004820152602a60248201527f45786368616e676553656c6c3a2063616c6c6572206973206e6f74206f776e65604482015269391037b3103a37b5b2b760b11b60648201526084016103a7565b9392505050565b6040516bffffffffffffffffffffffff19606084901b1660208201526034810182905260009060540160405160208183030381529060405280519060200120905092915050565b6040805160a08101825260009181018281526060820183905260808201839052815260208101919091528451516001600160a01b0316610f635784516001600160a01b038516905284516040018390525b610f6b61034b565b85516001600160a01b0390911660209182015285018290525083949350505050565b6040516331a9108f60e11b8152600481018290526000906001600160a01b03841690636352211e9060240160206040518083038186803b158015610fd057600080fd5b505afa158015610fe4573d6000803e3d6000fd5b505050506040513d601f19601f82011682018060405250810190610ec49190611025565b60006020828403121561101a57600080fd5b8135610ec4816111c9565b60006020828403121561103757600080fd5b8151610ec4816111c9565b6000806040838503121561105557600080fd5b8235611060816111c9565b946020939093013593505050565b60008060006060848603121561108357600080fd5b833561108e816111c9565b95602085013595506040909401359392505050565b6000602082840312156110b557600080fd5b5035919050565b6000602082840312156110ce57600080fd5b815160038110610ec457600080fd5b828152604081016003831061110257634e487b7160e01b600052602160045260246000fd5b8260208301529392505050565b6001600160a01b039485168152928416602084015292166040820152606081019190915260800190565b6020808252818101527f4f776e61626c653a2063616c6c6572206973206e6f7420746865206f776e6572604082015260600190565b600082198211156111815761118161119d565b500190565b6000828210156111985761119861119d565b500390565b634e487b7160e01b600052601160045260246000fd5b634e487b7160e01b600052602160045260246000fd5b6001600160a01b0381168114610ce957600080fdfea2646970667358221220de7ab21fd2ad3ae35e1de38f46913bda95b7f262ebdb1d0a7ee3c3bf31a81ddf64736f6c63430008050033",
  "linkReferences": {},
  "deployedLinkReferences": {}
}