{
  "_format": "hh-sol-artifact-1",
  "contractName": "Migration",
  "sourceName": "contracts/Migration.sol",
  "abi": [
    {
      "inputs": [],
      "stateMutability": "nonpayable",
      "type": "constructor"
    },
    {
      "inputs": [],
      "name": "migrated",
      "outputs": [
        {
          "internalType": "bool",
          "name": "",
          "type": "bool"
        }
      ],
      "stateMutability": "view",
      "type": "function"
    }
  ],
  "bytecode": "0x6080604052348015600f57600080fd5b5060216000805460ff19166001179055565b60838061002f6000396000f3fe6080604052348015600f57600080fd5b506004361060285760003560e01c80632c678c6414602d575b600080fd5b60005460399060ff1681565b604051901515815260200160405180910390f3fea2646970667358221220074e98ae61df514020507c2949d61300c4ed40df7b18e9ecfdb8240286ed575064736f6c63430008050033",
  "linkReferences": {},
  "deployedLinkReferences": {}
}