{
  "_format": "hh-sol-artifact-1",
  "contractName": "ExchangeAuction",
  "sourceName": "contracts/exchange/ExchangeAuction.sol",
  "abi": [
    {
      "inputs": [
        {
          "internalType": "address",
          "name": "_transfer",
          "type": "address"
        },
        {
          "internalType": "address",
          "name": "_holder",
          "type": "address"
        }
      ],
      "stateMutability": "nonpayable",
      "type": "constructor"
    },
    {
      "anonymous": false,
      "inputs": [
        {
          "indexed": false,
          "internalType": "bytes32",
          "name": "assetKey",
          "type": "bytes32"
        }
      ],
      "name": "EndAuction",
      "type": "event"
    },
    {
      "anonymous": false,
      "inputs": [
        {
          "indexed": true,
          "internalType": "address",
          "name": "previousOwner",
          "type": "address"
        },
        {
          "indexed": true,
          "internalType": "address",
          "name": "newOwner",
          "type": "address"
        }
      ],
      "name": "OwnershipTransferred",
      "type": "event"
    },
    {
      "anonymous": false,
      "inputs": [
        {
          "indexed": false,
          "internalType": "uint256",
          "name": "amount",
          "type": "uint256"
        },
        {
          "indexed": false,
          "internalType": "address",
          "name": "sender",
          "type": "address"
        }
      ],
      "name": "Receive",
      "type": "event"
    },
    {
      "anonymous": false,
      "inputs": [
        {
          "indexed": false,
          "internalType": "bytes32",
          "name": "assetKey",
          "type": "bytes32"
        },
        {
          "indexed": false,
          "internalType": "address",
          "name": "beneficiary",
          "type": "address"
        }
      ],
      "name": "Refund",
      "type": "event"
    },
    {
      "anonymous": false,
      "inputs": [
        {
          "indexed": false,
          "internalType": "bytes32",
          "name": "assetKey",
          "type": "bytes32"
        }
      ],
      "name": "StartAuction",
      "type": "event"
    },
    {
      "anonymous": false,
      "inputs": [
        {
          "indexed": false,
          "internalType": "uint256",
          "name": "amount",
          "type": "uint256"
        },
        {
          "indexed": false,
          "internalType": "address",
          "name": "caller",
          "type": "address"
        }
      ],
      "name": "Withdraw",
      "type": "event"
    },
    {
      "inputs": [],
      "name": "LOWEST_PRICE",
      "outputs": [
        {
          "internalType": "uint256",
          "name": "",
          "type": "uint256"
        }
      ],
      "stateMutability": "view",
      "type": "function"
    },
    {
      "inputs": [
        {
          "internalType": "bytes32",
          "name": "",
          "type": "bytes32"
        }
      ],
      "name": "assetsAuction",
      "outputs": [
        {
          "components": [
            {
              "internalType": "address",
              "name": "token",
              "type": "address"
            },
            {
              "internalType": "address payable",
              "name": "seller",
              "type": "address"
            },
            {
              "internalType": "uint256",
              "name": "tokenId",
              "type": "uint256"
            }
          ],
          "internalType": "struct ExchangeDomain.AssetDomain",
          "name": "domain",
          "type": "tuple"
        },
        {
          "internalType": "uint256",
          "name": "startPrice",
          "type": "uint256"
        },
        {
          "internalType": "uint256",
          "name": "endTime",
          "type": "uint256"
        }
      ],
      "stateMutability": "view",
      "type": "function"
    },
    {
      "inputs": [
        {
          "internalType": "bytes32",
          "name": "",
          "type": "bytes32"
        }
      ],
      "name": "auctionsParam",
      "outputs": [
        {
          "internalType": "uint256",
          "name": "highestBid",
          "type": "uint256"
        },
        {
          "internalType": "address",
          "name": "highestBidder",
          "type": "address"
        }
      ],
      "stateMutability": "view",
      "type": "function"
    },
    {
      "inputs": [],
      "name": "balance",
      "outputs": [
        {
          "internalType": "uint256",
          "name": "",
          "type": "uint256"
        }
      ],
      "stateMutability": "view",
      "type": "function"
    },
    {
      "inputs": [
        {
          "internalType": "bytes32",
          "name": "assetKey",
          "type": "bytes32"
        }
      ],
      "name": "bid",
      "outputs": [],
      "stateMutability": "payable",
      "type": "function"
    },
    {
      "inputs": [
        {
          "internalType": "address",
          "name": "token",
          "type": "address"
        },
        {
          "internalType": "uint256",
          "name": "tokenId",
          "type": "uint256"
        }
      ],
      "name": "end",
      "outputs": [],
      "stateMutability": "nonpayable",
      "type": "function"
    },
    {
      "inputs": [],
      "name": "owner",
      "outputs": [
        {
          "internalType": "address",
          "name": "",
          "type": "address"
        }
      ],
      "stateMutability": "view",
      "type": "function"
    },
    {
      "inputs": [
        {
          "internalType": "bytes32",
          "name": "assetKey",
          "type": "bytes32"
        }
      ],
      "name": "refund",
      "outputs": [],
      "stateMutability": "nonpayable",
      "type": "function"
    },
    {
      "inputs": [],
      "name": "renounceOwnership",
      "outputs": [],
      "stateMutability": "nonpayable",
      "type": "function"
    },
    {
      "inputs": [
        {
          "internalType": "address",
          "name": "token",
          "type": "address"
        },
        {
          "internalType": "uint256",
          "name": "tokenId",
          "type": "uint256"
        },
        {
          "internalType": "uint256",
          "name": "startPrice",
          "type": "uint256"
        },
        {
          "internalType": "uint256",
          "name": "time",
          "type": "uint256"
        }
      ],
      "name": "start",
      "outputs": [],
      "stateMutability": "nonpayable",
      "type": "function"
    },
    {
      "inputs": [
        {
          "internalType": "address",
          "name": "newOwner",
          "type": "address"
        }
      ],
      "name": "transferOwnership",
      "outputs": [],
      "stateMutability": "nonpayable",
      "type": "function"
    },
    {
      "inputs": [
        {
          "internalType": "uint256",
          "name": "amount",
          "type": "uint256"
        }
      ],
      "name": "withdraw",
      "outputs": [],
      "stateMutability": "nonpayable",
      "type": "function"
    },
    {
      "stateMutability": "payable",
      "type": "receive"
    }
  ],
  "bytecode": "0x60806040523480156200001157600080fd5b50604051620017d9380380620017d9833981016040819052620000349162000140565b62000048620000426200007a565b620000c0565b600480546001600160a01b039384166001600160a01b0319918216179091556005805492909316911617905562000178565b60006200009b336001600160a01b03166200011060201b620010f31760201c565b15620000a657503290565b620000bb6200011f60201b620011021760201c565b905090565b600080546001600160a01b038381166001600160a01b0319831681178455604051919092169283917f8be0079c531659141344cd1fd0a4f28419497f9722a3daafe3b4186f6b6457e09190a35050565b6001600160a01b03163b151590565b3390565b80516001600160a01b03811681146200013b57600080fd5b919050565b600080604083850312156200015457600080fd5b6200015f8362000123565b91506200016f6020840162000123565b90509250929050565b61165180620001886000396000f3fe6080604052600436106100ab5760003560e01c80637249fbb6116100645780637249fbb61461029f5780638da5cb5b146102bf578063957bb1e0146102e7578063b69ef8a8146102fa578063b76a3b5a14610310578063f2fde38b1461033057600080fd5b80632e1a7d4d146101195780633125a8bc1461013b5780633bd17aae146101e7578063679a997814610210578063695d69ba1461026a578063715018a61461028a57600080fd5b366101145734600160008282546100c29190611539565b909155507f679c2c72b93b6dbe9187487c5fd3c79f94582c5bfafd6d4e32164038479a22589050346100f2610350565b604080519283526001600160a01b0390911660208301520160405180910390a1005b600080fd5b34801561012557600080fd5b5061013961013436600461146e565b610363565b005b34801561014757600080fd5b506101a561015636600461146e565b600260208181526000928352604092839020835160608101855281546001600160a01b039081168252600183015416928101929092529182015492810192909252600381015460049091015483565b6040805184516001600160a01b0390811682526020808701519091169082015293810151908401526060830191909152608082015260a0015b60405180910390f35b3480156101f357600080fd5b5061020266038d7ea4c6800081565b6040519081526020016101de565b34801561021c57600080fd5b5061024d61022b36600461146e565b600360205260009081526040902080546001909101546001600160a01b031682565b604080519283526001600160a01b039091166020830152016101de565b34801561027657600080fd5b50610139610285366004611407565b61052f565b34801561029657600080fd5b506101396109d3565b3480156102ab57600080fd5b506101396102ba36600461146e565b610a28565b3480156102cb57600080fd5b506000546040516001600160a01b0390911681526020016101de565b6101396102f536600461146e565b610a86565b34801561030657600080fd5b5061020260015481565b34801561031c57600080fd5b5061013961032b366004611433565b610ca0565b34801561033c57600080fd5b5061013961034b3660046113cd565b611039565b6000333b1561035e57503290565b503390565b61036b610350565b6001600160a01b03166103866000546001600160a01b031690565b6001600160a01b0316146103b55760405162461bcd60e51b81526004016103ac90611504565b60405180910390fd5b60015481111561042d5760405162461bcd60e51b815260206004820152603960248201527f45786368616e6765436f72652377697468647261773a20616d6f756e74206d7560448201527f7374206265206c6573736572207468616e2062616c616e63650000000000000060648201526084016103ac565b6000610437610350565b6001600160a01b03168260405160006040518083038185875af1925050503d8060008114610481576040519150601f19603f3d011682016040523d82523d6000602084013e610486565b606091505b50509050806104c95760405162461bcd60e51b815260206004820152600f60248201526e15da5d1a191c985dc819985a5b1959608a1b60448201526064016103ac565b81600160008282546104db9190611592565b909155507f8353ffcac0876ad14e226d9783c04540bfebf13871e868157d2a391cad98e91890508261050b610350565b604080519283526001600160a01b0390911660208301520160405180910390a15050565b600061053b8383611106565b90506105468161114d565b600081815260026020818152604092839020835160c08101855281546001600160a01b0390811660608301908152600184015490911660808301529382015460a082015292835260038101549183019190915260040154918101829052904210156105ff5760405162461bcd60e51b815260206004820152602360248201527f45786368616e676541756374696f6e3a2061756374696f6e206973206e6f7420604482015262195b9960ea1b60648201526084016103ac565b60008281526003602090815260409182902091518481527f03c97191b9c419fc01ad9643c0a260fb552989b24c0cc6842bd676b5dd90e0a4910160405180910390a180546106bf576004805460055484516020015160405163fc25badb60e01b81526001600160a01b039384169463fc25badb94610686948c9491169290918b91016114da565b600060405180830381600087803b1580156106a057600080fd5b505af11580156106b4573d6000803e3d6000fd5b505050505050505050565b80546000906106dc906002906106d6906019611239565b9061124c565b604051909150600090309083908381818185875af1925050503d8060008114610721576040519150601f19603f3d011682016040523d82523d6000602084013e610726565b606091505b50509050806107835760405162461bcd60e51b8152602060048201526024808201527f45786863616e676541756374696f6e3a207472616e73666572206665652066616044820152631a5b195960e21b60648201526084016103ac565b83516020015183546000916001600160a01b0316906107a3908590611592565b604051600081818185875af1925050503d80600081146107df576040519150601f19603f3d011682016040523d82523d6000602084013e6107e4565b606091505b505090508061084a5760405162461bcd60e51b815260206004820152602c60248201527f45786368616e676541756374696f6e3a207472616e736665722062656e65666960448201526b18da585c9e4819985a5b195960a21b60648201526084016103ac565b6001840180546001600160a01b03908116600090815260038701602052604080822091909155600480546005549454925163fc25badb60e01b81529084169463fc25badb946108a4948f94928216939116918e91016114da565b600060405180830381600087803b1580156108be57600080fd5b505af11580156108d2573d6000803e3d6000fd5b5050600554604051636936f22560e01b81526001600160a01b039091169250636936f22591506109099089906000906004016114a8565b600060405180830381600087803b15801561092357600080fd5b505af1158015610937573d6000803e3d6000fd5b50505050600284015460005b61094e600183611592565b81116109c7576109878887600201838154811061096d5761096d6115f0565b6000918252602090912001546001600160a01b0316611258565b85600201818154811061099c5761099c6115f0565b600091825260209091200180546001600160a01b0319169055806109bf816115a9565b915050610943565b50505050505050505050565b6109db610350565b6001600160a01b03166109f66000546001600160a01b031690565b6001600160a01b031614610a1c5760405162461bcd60e51b81526004016103ac90611504565b610a2660006112e2565b565b610a3981610a34610350565b611258565b7f0ba6f12b978882904e7444c7a8fcadd2d9f692a6a97aa18e5fb44c3bbc58012381610a63610350565b604080519283526001600160a01b0390911660208301520160405180910390a150565b610a8f8161114d565b6000818152600260205260409020600401544210610af95760405162461bcd60e51b815260206004820152602160248201527f45786368616e676541756374696f6e3a2061756374696f6e20697320656e64656044820152601960fa1b60648201526084016103ac565b60008181526003602052604090208054610ba357600082815260026020526040902060030154341015610b8b5760405162461bcd60e51b815260206004820152603460248201527f45786368616e676541756374696f6e3a206269642076616c7565206973206c6f604482015273776572207468616e20737461727420707269636560601b60648201526084016103ac565b610b958134611332565b610b9f8134611364565b5050565b3460006003830181610bb3610350565b6001600160a01b0316815260208101919091526040016000205490508015610c0f57610bdf8183611539565b915081836003016000610bf0610350565b6001600160a01b03168152602081019190915260400160002055610c19565b610c198383611364565b8254821015610c905760405162461bcd60e51b815260206004820152603a60248201527f45786368616e676541756374696f6e3a206269642076616c7565206973206c6f60448201527f776572207468616e20746865206869676865737420707269636500000000000060648201526084016103ac565b610c9a8383611332565b50505050565b66038d7ea4c68000821015610d0d5760405162461bcd60e51b815260206004820152602d60248201527f45786368616e676541756374696f6e2373746172743a2073746172742070726960448201526c636520697320746f6f206c6f7760981b60648201526084016103ac565b6040516331a9108f60e11b81526004810184905284906000906001600160a01b03831690636352211e9060240160206040518083038186803b158015610d5257600080fd5b505afa158015610d66573d6000803e3d6000fd5b505050506040513d601f19601f82011682018060405250810190610d8a91906113ea565b9050806001600160a01b0316610d9e610350565b6001600160a01b031614610df45760405162461bcd60e51b815260206004820152601c60248201527f43616c6c6572206973206e6f74206f776e6572206f6620746f6b656e0000000060448201526064016103ac565b6000610e008442611539565b90506000610e0e8888611106565b9050600060405180606001604052808a6001600160a01b03168152602001610e34610350565b6001600160a01b0316815260200189815250905060006040518060600160405280838152602001898152602001858152509050806002600085815260200190815260200160002060008201518160000160008201518160000160006101000a8154816001600160a01b0302191690836001600160a01b0316021790555060208201518160010160006101000a8154816001600160a01b0302191690836001600160a01b031602179055506040820151816002015550506020820151816003015560408201518160040155905050600460009054906101000a90046001600160a01b03166001600160a01b031663fc25badb8787600560009054906101000a90046001600160a01b03168d6040518563ffffffff1660e01b8152600401610f5d94939291906114da565b600060405180830381600087803b158015610f7757600080fd5b505af1158015610f8b573d6000803e3d6000fd5b5050600554604051636936f22560e01b81526001600160a01b039091169250636936f2259150610fc29086906002906004016114a8565b600060405180830381600087803b158015610fdc57600080fd5b505af1158015610ff0573d6000803e3d6000fd5b505050507f7b8d82ee5d74f2aa252cdad7950b582d5e47334f9de3af42453313eb38ddc0ab8360405161102591815260200190565b60405180910390a150505050505050505050565b611041610350565b6001600160a01b031661105c6000546001600160a01b031690565b6001600160a01b0316146110825760405162461bcd60e51b81526004016103ac90611504565b6001600160a01b0381166110e75760405162461bcd60e51b815260206004820152602660248201527f4f776e61626c653a206e6577206f776e657220697320746865207a65726f206160448201526564647265737360d01b60648201526084016103ac565b6110f0816112e2565b50565b6001600160a01b03163b151590565b3390565b6040516bffffffffffffffffffffffff19606084901b1660208201526034810182905260009060540160405160208183030381529060405280519060200120905092915050565b60055460405163023aa9ab60e61b8152600481018390526002916001600160a01b031690638eaa6ac09060240160206040518083038186803b15801561119257600080fd5b505afa1580156111a6573d6000803e3d6000fd5b505050506040513d601f19601f820116820180604052508101906111ca9190611487565b60028111156111db576111db6115da565b146110f05760405162461bcd60e51b815260206004820152602860248201527f45786368616e676541756374696f6e3a206173736574206973206e6f7420696e6044820152671030bab1ba34b7b760c11b60648201526084016103ac565b60006112458284611551565b9392505050565b60006112458284611573565b60008281526003602081815260408084206001600160a01b0386168552928301909152909120548061128a5750505050565b6040516001600160a01b0384169082156108fc029083906000818181858888f193505050501580156112c0573d6000803e3d6000fd5b50506001600160a01b0390911660009081526003909101602052604081205550565b600080546001600160a01b038381166001600160a01b0319831681178455604051919092169283917f8be0079c531659141344cd1fd0a4f28419497f9722a3daafe3b4186f6b6457e09190a35050565b80825561133d610350565b60019290920180546001600160a01b0319166001600160a01b039093169290921790915550565b81600201611370610350565b81546001810183556000928352602083200180546001600160a01b0319166001600160a01b0392909216919091179055819060038401906113af610350565b6001600160a01b031681526020810191909152604001600020555050565b6000602082840312156113df57600080fd5b813561124581611606565b6000602082840312156113fc57600080fd5b815161124581611606565b6000806040838503121561141a57600080fd5b823561142581611606565b946020939093013593505050565b6000806000806080858703121561144957600080fd5b843561145481611606565b966020860135965060408601359560600135945092505050565b60006020828403121561148057600080fd5b5035919050565b60006020828403121561149957600080fd5b81516003811061124557600080fd5b82815260408101600383106114cd57634e487b7160e01b600052602160045260246000fd5b8260208301529392505050565b6001600160a01b039485168152928416602084015292166040820152606081019190915260800190565b6020808252818101527f4f776e61626c653a2063616c6c6572206973206e6f7420746865206f776e6572604082015260600190565b6000821982111561154c5761154c6115c4565b500190565b60008261156e57634e487b7160e01b600052601260045260246000fd5b500490565b600081600019048311821515161561158d5761158d6115c4565b500290565b6000828210156115a4576115a46115c4565b500390565b60006000198214156115bd576115bd6115c4565b5060010190565b634e487b7160e01b600052601160045260246000fd5b634e487b7160e01b600052602160045260246000fd5b634e487b7160e01b600052603260045260246000fd5b6001600160a01b03811681146110f057600080fdfea264697066735822122097a912f1023c61401ab53aa0421bff3dbbbafacd534a24f55a5ce99367dc147a64736f6c63430008050033",
  "linkReferences": {},
  "deployedLinkReferences": {}
}