{
  "_format": "hh-sol-artifact-1",
  "contractName": "ExchangeAuction",
  "sourceName": "contracts/exchange/ExchangeAuction.sol",
  "abi": [
    {
      "inputs": [
        {
          "internalType": "address",
          "name": "_transfer",
          "type": "address"
        },
        {
          "internalType": "address",
          "name": "_holder",
          "type": "address"
        }
      ],
      "stateMutability": "nonpayable",
      "type": "constructor"
    },
    {
      "anonymous": false,
      "inputs": [
        {
          "indexed": false,
          "internalType": "bytes32",
          "name": "assetKey",
          "type": "bytes32"
        }
      ],
      "name": "EndAuction",
      "type": "event"
    },
    {
      "anonymous": false,
      "inputs": [
        {
          "indexed": true,
          "internalType": "address",
          "name": "previousOwner",
          "type": "address"
        },
        {
          "indexed": true,
          "internalType": "address",
          "name": "newOwner",
          "type": "address"
        }
      ],
      "name": "OwnershipTransferred",
      "type": "event"
    },
    {
      "anonymous": false,
      "inputs": [
        {
          "indexed": false,
          "internalType": "uint256",
          "name": "amount",
          "type": "uint256"
        },
        {
          "indexed": false,
          "internalType": "address",
          "name": "sender",
          "type": "address"
        }
      ],
      "name": "Receive",
      "type": "event"
    },
    {
      "anonymous": false,
      "inputs": [
        {
          "indexed": false,
          "internalType": "bytes32",
          "name": "assetKey",
          "type": "bytes32"
        },
        {
          "indexed": false,
          "internalType": "address",
          "name": "beneficiary",
          "type": "address"
        }
      ],
      "name": "Refund",
      "type": "event"
    },
    {
      "anonymous": false,
      "inputs": [
        {
          "indexed": false,
          "internalType": "bytes32",
          "name": "assetKey",
          "type": "bytes32"
        }
      ],
      "name": "StartAuction",
      "type": "event"
    },
    {
      "anonymous": false,
      "inputs": [
        {
          "indexed": false,
          "internalType": "uint256",
          "name": "amount",
          "type": "uint256"
        },
        {
          "indexed": false,
          "internalType": "address",
          "name": "caller",
          "type": "address"
        }
      ],
      "name": "Withdraw",
      "type": "event"
    },
    {
      "inputs": [
        {
          "internalType": "bytes32",
          "name": "",
          "type": "bytes32"
        }
      ],
      "name": "assetsAuction",
      "outputs": [
        {
          "components": [
            {
              "internalType": "address",
              "name": "token",
              "type": "address"
            },
            {
              "internalType": "address payable",
              "name": "seller",
              "type": "address"
            },
            {
              "internalType": "uint256",
              "name": "tokenId",
              "type": "uint256"
            }
          ],
          "internalType": "struct ExchangeDomain.AssetDomain",
          "name": "domain",
          "type": "tuple"
        },
        {
          "internalType": "uint256",
          "name": "startPrice",
          "type": "uint256"
        },
        {
          "internalType": "uint256",
          "name": "endTime",
          "type": "uint256"
        }
      ],
      "stateMutability": "view",
      "type": "function"
    },
    {
      "inputs": [
        {
          "internalType": "bytes32",
          "name": "",
          "type": "bytes32"
        }
      ],
      "name": "auctionsParam",
      "outputs": [
        {
          "internalType": "uint256",
          "name": "highestBid",
          "type": "uint256"
        },
        {
          "internalType": "address",
          "name": "highestBidder",
          "type": "address"
        }
      ],
      "stateMutability": "view",
      "type": "function"
    },
    {
      "inputs": [],
      "name": "balance",
      "outputs": [
        {
          "internalType": "uint256",
          "name": "",
          "type": "uint256"
        }
      ],
      "stateMutability": "view",
      "type": "function"
    },
    {
      "inputs": [
        {
          "internalType": "bytes32",
          "name": "assetKey",
          "type": "bytes32"
        }
      ],
      "name": "bid",
      "outputs": [],
      "stateMutability": "payable",
      "type": "function"
    },
    {
      "inputs": [
        {
          "internalType": "address",
          "name": "token",
          "type": "address"
        },
        {
          "internalType": "uint256",
          "name": "tokenId",
          "type": "uint256"
        }
      ],
      "name": "end",
      "outputs": [],
      "stateMutability": "nonpayable",
      "type": "function"
    },
    {
      "inputs": [],
      "name": "owner",
      "outputs": [
        {
          "internalType": "address",
          "name": "",
          "type": "address"
        }
      ],
      "stateMutability": "view",
      "type": "function"
    },
    {
      "inputs": [
        {
          "internalType": "bytes32",
          "name": "assetKey",
          "type": "bytes32"
        }
      ],
      "name": "refund",
      "outputs": [],
      "stateMutability": "nonpayable",
      "type": "function"
    },
    {
      "inputs": [],
      "name": "renounceOwnership",
      "outputs": [],
      "stateMutability": "nonpayable",
      "type": "function"
    },
    {
      "inputs": [
        {
          "internalType": "address",
          "name": "token",
          "type": "address"
        },
        {
          "internalType": "uint256",
          "name": "tokenId",
          "type": "uint256"
        },
        {
          "internalType": "uint256",
          "name": "startPrice",
          "type": "uint256"
        },
        {
          "internalType": "uint256",
          "name": "time",
          "type": "uint256"
        }
      ],
      "name": "start",
      "outputs": [],
      "stateMutability": "nonpayable",
      "type": "function"
    },
    {
      "inputs": [
        {
          "internalType": "address",
          "name": "newOwner",
          "type": "address"
        }
      ],
      "name": "transferOwnership",
      "outputs": [],
      "stateMutability": "nonpayable",
      "type": "function"
    },
    {
      "inputs": [
        {
          "internalType": "uint256",
          "name": "amount",
          "type": "uint256"
        }
      ],
      "name": "withdraw",
      "outputs": [],
      "stateMutability": "nonpayable",
      "type": "function"
    },
    {
      "stateMutability": "payable",
      "type": "receive"
    }
  ],
  "bytecode": "0x60806040523480156200001157600080fd5b506040516200174638038062001746833981016040819052620000349162000140565b62000048620000426200007a565b620000c0565b600480546001600160a01b039384166001600160a01b0319918216179091556005805492909316911617905562000178565b60006200009b336001600160a01b03166200011060201b620010601760201c565b15620000a657503290565b620000bb6200011f60201b6200106f1760201c565b905090565b600080546001600160a01b038381166001600160a01b0319831681178455604051919092169283917f8be0079c531659141344cd1fd0a4f28419497f9722a3daafe3b4186f6b6457e09190a35050565b6001600160a01b03163b151590565b3390565b80516001600160a01b03811681146200013b57600080fd5b919050565b600080604083850312156200015457600080fd5b6200015f8362000123565b91506200016f6020840162000123565b90509250929050565b6115be80620001886000396000f3fe6080604052600436106100a05760003560e01c80637249fbb6116100645780637249fbb61461026b5780638da5cb5b1461028b578063957bb1e0146102b3578063b69ef8a8146102c6578063b76a3b5a146102ea578063f2fde38b1461030a57600080fd5b80632e1a7d4d1461010e5780633125a8bc14610130578063679a9978146101dc578063695d69ba14610236578063715018a61461025657600080fd5b366101095734600160008282546100b791906114a6565b909155507f679c2c72b93b6dbe9187487c5fd3c79f94582c5bfafd6d4e32164038479a22589050346100e761032a565b604080519283526001600160a01b0390911660208301520160405180910390a1005b600080fd5b34801561011a57600080fd5b5061012e6101293660046113db565b61033d565b005b34801561013c57600080fd5b5061019a61014b3660046113db565b600260208181526000928352604092839020835160608101855281546001600160a01b039081168252600183015416928101929092529182015492810192909252600381015460049091015483565b6040805184516001600160a01b0390811682526020808701519091169082015293810151908401526060830191909152608082015260a0015b60405180910390f35b3480156101e857600080fd5b506102196101f73660046113db565b600360205260009081526040902080546001909101546001600160a01b031682565b604080519283526001600160a01b039091166020830152016101d3565b34801561024257600080fd5b5061012e610251366004611374565b610509565b34801561026257600080fd5b5061012e6109ad565b34801561027757600080fd5b5061012e6102863660046113db565b610a02565b34801561029757600080fd5b506000546040516001600160a01b0390911681526020016101d3565b61012e6102c13660046113db565b610a60565b3480156102d257600080fd5b506102dc60015481565b6040519081526020016101d3565b3480156102f657600080fd5b5061012e6103053660046113a0565b610c7a565b34801561031657600080fd5b5061012e61032536600461133a565b610fa6565b6000333b1561033857503290565b503390565b61034561032a565b6001600160a01b03166103606000546001600160a01b031690565b6001600160a01b03161461038f5760405162461bcd60e51b815260040161038690611471565b60405180910390fd5b6001548111156104075760405162461bcd60e51b815260206004820152603960248201527f45786368616e6765436f72652377697468647261773a20616d6f756e74206d7560448201527f7374206265206c6573736572207468616e2062616c616e6365000000000000006064820152608401610386565b600061041161032a565b6001600160a01b03168260405160006040518083038185875af1925050503d806000811461045b576040519150601f19603f3d011682016040523d82523d6000602084013e610460565b606091505b50509050806104a35760405162461bcd60e51b815260206004820152600f60248201526e15da5d1a191c985dc819985a5b1959608a1b6044820152606401610386565b81600160008282546104b591906114ff565b909155507f8353ffcac0876ad14e226d9783c04540bfebf13871e868157d2a391cad98e9189050826104e561032a565b604080519283526001600160a01b0390911660208301520160405180910390a15050565b60006105158383611073565b9050610520816110ba565b600081815260026020818152604092839020835160c08101855281546001600160a01b0390811660608301908152600184015490911660808301529382015460a082015292835260038101549183019190915260040154918101829052904210156105d95760405162461bcd60e51b815260206004820152602360248201527f45786368616e676541756374696f6e3a2061756374696f6e206973206e6f7420604482015262195b9960ea1b6064820152608401610386565b60008281526003602090815260409182902091518481527f03c97191b9c419fc01ad9643c0a260fb552989b24c0cc6842bd676b5dd90e0a4910160405180910390a18054610699576004805460055484516020015160405163fc25badb60e01b81526001600160a01b039384169463fc25badb94610660948c9491169290918b9101611447565b600060405180830381600087803b15801561067a57600080fd5b505af115801561068e573d6000803e3d6000fd5b505050505050505050565b80546000906106b6906002906106b09060196111a6565b906111b9565b604051909150600090309083908381818185875af1925050503d80600081146106fb576040519150601f19603f3d011682016040523d82523d6000602084013e610700565b606091505b505090508061075d5760405162461bcd60e51b8152602060048201526024808201527f45786863616e676541756374696f6e3a207472616e73666572206665652066616044820152631a5b195960e21b6064820152608401610386565b83516020015183546000916001600160a01b03169061077d9085906114ff565b604051600081818185875af1925050503d80600081146107b9576040519150601f19603f3d011682016040523d82523d6000602084013e6107be565b606091505b50509050806108245760405162461bcd60e51b815260206004820152602c60248201527f45786368616e676541756374696f6e3a207472616e736665722062656e65666960448201526b18da585c9e4819985a5b195960a21b6064820152608401610386565b6001840180546001600160a01b03908116600090815260038701602052604080822091909155600480546005549454925163fc25badb60e01b81529084169463fc25badb9461087e948f94928216939116918e9101611447565b600060405180830381600087803b15801561089857600080fd5b505af11580156108ac573d6000803e3d6000fd5b5050600554604051636936f22560e01b81526001600160a01b039091169250636936f22591506108e3908990600090600401611415565b600060405180830381600087803b1580156108fd57600080fd5b505af1158015610911573d6000803e3d6000fd5b50505050600284015460005b6109286001836114ff565b81116109a157610961888760020183815481106109475761094761155d565b6000918252602090912001546001600160a01b03166111c5565b8560020181815481106109765761097661155d565b600091825260209091200180546001600160a01b03191690558061099981611516565b91505061091d565b50505050505050505050565b6109b561032a565b6001600160a01b03166109d06000546001600160a01b031690565b6001600160a01b0316146109f65760405162461bcd60e51b815260040161038690611471565b610a00600061124f565b565b610a1381610a0e61032a565b6111c5565b7f0ba6f12b978882904e7444c7a8fcadd2d9f692a6a97aa18e5fb44c3bbc58012381610a3d61032a565b604080519283526001600160a01b0390911660208301520160405180910390a150565b610a69816110ba565b6000818152600260205260409020600401544210610ad35760405162461bcd60e51b815260206004820152602160248201527f45786368616e676541756374696f6e3a2061756374696f6e20697320656e64656044820152601960fa1b6064820152608401610386565b60008181526003602052604090208054610b7d57600082815260026020526040902060030154341015610b655760405162461bcd60e51b815260206004820152603460248201527f45786368616e676541756374696f6e3a206269642076616c7565206973206c6f604482015273776572207468616e20737461727420707269636560601b6064820152608401610386565b610b6f813461129f565b610b7981346112d1565b5050565b3460006003830181610b8d61032a565b6001600160a01b0316815260208101919091526040016000205490508015610be957610bb981836114a6565b915081836003016000610bca61032a565b6001600160a01b03168152602081019190915260400160002055610bf3565b610bf383836112d1565b8254821015610c6a5760405162461bcd60e51b815260206004820152603a60248201527f45786368616e676541756374696f6e3a206269642076616c7565206973206c6f60448201527f776572207468616e2074686520686967686573742070726963650000000000006064820152608401610386565b610c74838361129f565b50505050565b6040516331a9108f60e11b81526004810184905284906000906001600160a01b03831690636352211e9060240160206040518083038186803b158015610cbf57600080fd5b505afa158015610cd3573d6000803e3d6000fd5b505050506040513d601f19601f82011682018060405250810190610cf79190611357565b9050806001600160a01b0316610d0b61032a565b6001600160a01b031614610d615760405162461bcd60e51b815260206004820152601c60248201527f43616c6c6572206973206e6f74206f776e6572206f6620746f6b656e000000006044820152606401610386565b6000610d6d84426114a6565b90506000610d7b8888611073565b9050600060405180606001604052808a6001600160a01b03168152602001610da161032a565b6001600160a01b0316815260200189815250905060006040518060600160405280838152602001898152602001858152509050806002600085815260200190815260200160002060008201518160000160008201518160000160006101000a8154816001600160a01b0302191690836001600160a01b0316021790555060208201518160010160006101000a8154816001600160a01b0302191690836001600160a01b031602179055506040820151816002015550506020820151816003015560408201518160040155905050600460009054906101000a90046001600160a01b03166001600160a01b031663fc25badb8787600560009054906101000a90046001600160a01b03168d6040518563ffffffff1660e01b8152600401610eca9493929190611447565b600060405180830381600087803b158015610ee457600080fd5b505af1158015610ef8573d6000803e3d6000fd5b5050600554604051636936f22560e01b81526001600160a01b039091169250636936f2259150610f2f908690600290600401611415565b600060405180830381600087803b158015610f4957600080fd5b505af1158015610f5d573d6000803e3d6000fd5b505050507f7b8d82ee5d74f2aa252cdad7950b582d5e47334f9de3af42453313eb38ddc0ab83604051610f9291815260200190565b60405180910390a150505050505050505050565b610fae61032a565b6001600160a01b0316610fc96000546001600160a01b031690565b6001600160a01b031614610fef5760405162461bcd60e51b815260040161038690611471565b6001600160a01b0381166110545760405162461bcd60e51b815260206004820152602660248201527f4f776e61626c653a206e6577206f776e657220697320746865207a65726f206160448201526564647265737360d01b6064820152608401610386565b61105d8161124f565b50565b6001600160a01b03163b151590565b3390565b6040516bffffffffffffffffffffffff19606084901b1660208201526034810182905260009060540160405160208183030381529060405280519060200120905092915050565b60055460405163023aa9ab60e61b8152600481018390526002916001600160a01b031690638eaa6ac09060240160206040518083038186803b1580156110ff57600080fd5b505afa158015611113573d6000803e3d6000fd5b505050506040513d601f19601f8201168201806040525081019061113791906113f4565b600281111561114857611148611547565b1461105d5760405162461bcd60e51b815260206004820152602860248201527f45786368616e676541756374696f6e3a206173736574206973206e6f7420696e6044820152671030bab1ba34b7b760c11b6064820152608401610386565b60006111b282846114be565b9392505050565b60006111b282846114e0565b60008281526003602081815260408084206001600160a01b038616855292830190915290912054806111f75750505050565b6040516001600160a01b0384169082156108fc029083906000818181858888f1935050505015801561122d573d6000803e3d6000fd5b50506001600160a01b0390911660009081526003909101602052604081205550565b600080546001600160a01b038381166001600160a01b0319831681178455604051919092169283917f8be0079c531659141344cd1fd0a4f28419497f9722a3daafe3b4186f6b6457e09190a35050565b8082556112aa61032a565b60019290920180546001600160a01b0319166001600160a01b039093169290921790915550565b816002016112dd61032a565b81546001810183556000928352602083200180546001600160a01b0319166001600160a01b03929092169190911790558190600384019061131c61032a565b6001600160a01b031681526020810191909152604001600020555050565b60006020828403121561134c57600080fd5b81356111b281611573565b60006020828403121561136957600080fd5b81516111b281611573565b6000806040838503121561138757600080fd5b823561139281611573565b946020939093013593505050565b600080600080608085870312156113b657600080fd5b84356113c181611573565b966020860135965060408601359560600135945092505050565b6000602082840312156113ed57600080fd5b5035919050565b60006020828403121561140657600080fd5b8151600381106111b257600080fd5b828152604081016003831061143a57634e487b7160e01b600052602160045260246000fd5b8260208301529392505050565b6001600160a01b039485168152928416602084015292166040820152606081019190915260800190565b6020808252818101527f4f776e61626c653a2063616c6c6572206973206e6f7420746865206f776e6572604082015260600190565b600082198211156114b9576114b9611531565b500190565b6000826114db57634e487b7160e01b600052601260045260246000fd5b500490565b60008160001904831182151516156114fa576114fa611531565b500290565b60008282101561151157611511611531565b500390565b600060001982141561152a5761152a611531565b5060010190565b634e487b7160e01b600052601160045260246000fd5b634e487b7160e01b600052602160045260246000fd5b634e487b7160e01b600052603260045260246000fd5b6001600160a01b038116811461105d57600080fdfea264697066735822122042fa3387650579d5277d8a6fd5f0d04831ac899830a27ef1e467d96b396d098b64736f6c63430008050033",
  "linkReferences": {},
  "deployedLinkReferences": {}
}