{
  "_format": "hh-sol-artifact-1",
  "contractName": "ExchangeAuction",
  "sourceName": "contracts/exchange/ExchangeAuction.sol",
  "abi": [
    {
      "inputs": [
        {
          "internalType": "address",
          "name": "_transfer",
          "type": "address"
        },
        {
          "internalType": "address",
          "name": "_holder",
          "type": "address"
        }
      ],
      "stateMutability": "nonpayable",
      "type": "constructor"
    },
    {
      "anonymous": false,
      "inputs": [
        {
          "indexed": false,
          "internalType": "bytes32",
          "name": "assetKey",
          "type": "bytes32"
        }
      ],
      "name": "EndAuction",
      "type": "event"
    },
    {
      "anonymous": false,
      "inputs": [
        {
          "indexed": true,
          "internalType": "address",
          "name": "previousOwner",
          "type": "address"
        },
        {
          "indexed": true,
          "internalType": "address",
          "name": "newOwner",
          "type": "address"
        }
      ],
      "name": "OwnershipTransferred",
      "type": "event"
    },
    {
      "anonymous": false,
      "inputs": [
        {
          "indexed": false,
          "internalType": "uint256",
          "name": "amount",
          "type": "uint256"
        },
        {
          "indexed": false,
          "internalType": "address",
          "name": "sender",
          "type": "address"
        }
      ],
      "name": "Receive",
      "type": "event"
    },
    {
      "anonymous": false,
      "inputs": [
        {
          "indexed": false,
          "internalType": "bytes32",
          "name": "assetKey",
          "type": "bytes32"
        },
        {
          "indexed": false,
          "internalType": "address",
          "name": "beneficiary",
          "type": "address"
        }
      ],
      "name": "Refund",
      "type": "event"
    },
    {
      "anonymous": false,
      "inputs": [
        {
          "indexed": false,
          "internalType": "bytes32",
          "name": "assetKey",
          "type": "bytes32"
        }
      ],
      "name": "StartAuction",
      "type": "event"
    },
    {
      "anonymous": false,
      "inputs": [
        {
          "indexed": false,
          "internalType": "uint256",
          "name": "amount",
          "type": "uint256"
        },
        {
          "indexed": false,
          "internalType": "address",
          "name": "caller",
          "type": "address"
        }
      ],
      "name": "Withdraw",
      "type": "event"
    },
    {
      "inputs": [
        {
          "internalType": "bytes32",
          "name": "",
          "type": "bytes32"
        }
      ],
      "name": "assetsAuction",
      "outputs": [
        {
          "components": [
            {
              "internalType": "address",
              "name": "token",
              "type": "address"
            },
            {
              "internalType": "address payable",
              "name": "seller",
              "type": "address"
            },
            {
              "internalType": "uint256",
              "name": "tokenId",
              "type": "uint256"
            }
          ],
          "internalType": "struct ExchangeDomain.AssetDomain",
          "name": "domain",
          "type": "tuple"
        },
        {
          "internalType": "uint256",
          "name": "startPrice",
          "type": "uint256"
        },
        {
          "internalType": "uint256",
          "name": "endTime",
          "type": "uint256"
        }
      ],
      "stateMutability": "view",
      "type": "function"
    },
    {
      "inputs": [
        {
          "internalType": "bytes32",
          "name": "",
          "type": "bytes32"
        }
      ],
      "name": "auctionsParam",
      "outputs": [
        {
          "internalType": "uint256",
          "name": "highestBid",
          "type": "uint256"
        },
        {
          "internalType": "address",
          "name": "highestBidder",
          "type": "address"
        }
      ],
      "stateMutability": "view",
      "type": "function"
    },
    {
      "inputs": [],
      "name": "balance",
      "outputs": [
        {
          "internalType": "uint256",
          "name": "",
          "type": "uint256"
        }
      ],
      "stateMutability": "view",
      "type": "function"
    },
    {
      "inputs": [
        {
          "internalType": "bytes32",
          "name": "assetKey",
          "type": "bytes32"
        }
      ],
      "name": "bid",
      "outputs": [],
      "stateMutability": "payable",
      "type": "function"
    },
    {
      "inputs": [
        {
          "internalType": "bytes32",
          "name": "assetKey",
          "type": "bytes32"
        }
      ],
      "name": "bidValueInAsset",
      "outputs": [
        {
          "internalType": "uint256",
          "name": "",
          "type": "uint256"
        }
      ],
      "stateMutability": "view",
      "type": "function"
    },
    {
      "inputs": [
        {
          "internalType": "address",
          "name": "token",
          "type": "address"
        },
        {
          "internalType": "uint256",
          "name": "tokenId",
          "type": "uint256"
        }
      ],
      "name": "end",
      "outputs": [],
      "stateMutability": "nonpayable",
      "type": "function"
    },
    {
      "inputs": [],
      "name": "owner",
      "outputs": [
        {
          "internalType": "address",
          "name": "",
          "type": "address"
        }
      ],
      "stateMutability": "view",
      "type": "function"
    },
    {
      "inputs": [
        {
          "internalType": "bytes32",
          "name": "assetKey",
          "type": "bytes32"
        }
      ],
      "name": "refund",
      "outputs": [],
      "stateMutability": "nonpayable",
      "type": "function"
    },
    {
      "inputs": [],
      "name": "renounceOwnership",
      "outputs": [],
      "stateMutability": "nonpayable",
      "type": "function"
    },
    {
      "inputs": [
        {
          "internalType": "address",
          "name": "token",
          "type": "address"
        },
        {
          "internalType": "uint256",
          "name": "tokenId",
          "type": "uint256"
        },
        {
          "internalType": "uint256",
          "name": "startPrice",
          "type": "uint256"
        },
        {
          "internalType": "uint256",
          "name": "time",
          "type": "uint256"
        }
      ],
      "name": "start",
      "outputs": [],
      "stateMutability": "nonpayable",
      "type": "function"
    },
    {
      "inputs": [
        {
          "internalType": "address",
          "name": "newOwner",
          "type": "address"
        }
      ],
      "name": "transferOwnership",
      "outputs": [],
      "stateMutability": "nonpayable",
      "type": "function"
    },
    {
      "inputs": [
        {
          "internalType": "uint256",
          "name": "amount",
          "type": "uint256"
        }
      ],
      "name": "withdraw",
      "outputs": [],
      "stateMutability": "nonpayable",
      "type": "function"
    },
    {
      "stateMutability": "payable",
      "type": "receive"
    }
  ],
  "bytecode": "0x60806040523480156200001157600080fd5b50604051620017ae380380620017ae833981016040819052620000349162000140565b62000048620000426200007a565b620000c0565b600480546001600160a01b039384166001600160a01b0319918216179091556005805492909316911617905562000178565b60006200009b336001600160a01b03166200011060201b620010c81760201c565b15620000a657503290565b620000bb6200011f60201b620010d71760201c565b905090565b600080546001600160a01b038381166001600160a01b0319831681178455604051919092169283917f8be0079c531659141344cd1fd0a4f28419497f9722a3daafe3b4186f6b6457e09190a35050565b6001600160a01b03163b151590565b3390565b80516001600160a01b03811681146200013b57600080fd5b919050565b600080604083850312156200015457600080fd5b6200015f8362000123565b91506200016f6020840162000123565b90509250929050565b61162680620001886000396000f3fe6080604052600436106100ab5760003560e01c80637249fbb6116100645780637249fbb6146102a45780638da5cb5b146102c4578063957bb1e0146102ec578063b69ef8a8146102ff578063b76a3b5a14610315578063f2fde38b1461033557600080fd5b80632e1a7d4d146101195780633125a8bc1461013b57806343fb947a146101e7578063679a997814610215578063695d69ba1461026f578063715018a61461028f57600080fd5b366101145734600160008282546100c2919061150e565b909155507f679c2c72b93b6dbe9187487c5fd3c79f94582c5bfafd6d4e32164038479a22589050346100f2610355565b604080519283526001600160a01b0390911660208301520160405180910390a1005b600080fd5b34801561012557600080fd5b50610139610134366004611443565b610368565b005b34801561014757600080fd5b506101a5610156366004611443565b600260208181526000928352604092839020835160608101855281546001600160a01b039081168252600183015416928101929092529182015492810192909252600381015460049091015483565b6040805184516001600160a01b0390811682526020808701519091169082015293810151908401526060830191909152608082015260a0015b60405180910390f35b3480156101f357600080fd5b50610207610202366004611443565b610534565b6040519081526020016101de565b34801561022157600080fd5b50610252610230366004611443565b600360205260009081526040902080546001909101546001600160a01b031682565b604080519283526001600160a01b039091166020830152016101de565b34801561027b57600080fd5b5061013961028a3660046113dc565b610571565b34801561029b57600080fd5b50610139610a15565b3480156102b057600080fd5b506101396102bf366004611443565b610a6a565b3480156102d057600080fd5b506000546040516001600160a01b0390911681526020016101de565b6101396102fa366004611443565b610ac8565b34801561030b57600080fd5b5061020760015481565b34801561032157600080fd5b50610139610330366004611408565b610ce2565b34801561034157600080fd5b506101396103503660046113a2565b61100e565b6000333b1561036357503290565b503390565b610370610355565b6001600160a01b031661038b6000546001600160a01b031690565b6001600160a01b0316146103ba5760405162461bcd60e51b81526004016103b1906114d9565b60405180910390fd5b6001548111156104325760405162461bcd60e51b815260206004820152603960248201527f45786368616e6765436f72652377697468647261773a20616d6f756e74206d7560448201527f7374206265206c6573736572207468616e2062616c616e63650000000000000060648201526084016103b1565b600061043c610355565b6001600160a01b03168260405160006040518083038185875af1925050503d8060008114610486576040519150601f19603f3d011682016040523d82523d6000602084013e61048b565b606091505b50509050806104ce5760405162461bcd60e51b815260206004820152600f60248201526e15da5d1a191c985dc819985a5b1959608a1b60448201526064016103b1565b81600160008282546104e09190611567565b909155507f8353ffcac0876ad14e226d9783c04540bfebf13871e868157d2a391cad98e918905082610510610355565b604080519283526001600160a01b0390911660208301520160405180910390a15050565b6000818152600360208190526040822082910181610550610355565b6001600160a01b031681526020810191909152604001600020549392505050565b600061057d83836110db565b905061058881611122565b600081815260026020818152604092839020835160c08101855281546001600160a01b0390811660608301908152600184015490911660808301529382015460a082015292835260038101549183019190915260040154918101829052904210156106415760405162461bcd60e51b815260206004820152602360248201527f45786368616e676541756374696f6e3a2061756374696f6e206973206e6f7420604482015262195b9960ea1b60648201526084016103b1565b60008281526003602090815260409182902091518481527f03c97191b9c419fc01ad9643c0a260fb552989b24c0cc6842bd676b5dd90e0a4910160405180910390a18054610701576004805460055484516020015160405163fc25badb60e01b81526001600160a01b039384169463fc25badb946106c8948c9491169290918b91016114af565b600060405180830381600087803b1580156106e257600080fd5b505af11580156106f6573d6000803e3d6000fd5b505050505050505050565b805460009061071e9060029061071890601961120e565b90611221565b604051909150600090309083908381818185875af1925050503d8060008114610763576040519150601f19603f3d011682016040523d82523d6000602084013e610768565b606091505b50509050806107c55760405162461bcd60e51b8152602060048201526024808201527f45786863616e676541756374696f6e3a207472616e73666572206665652066616044820152631a5b195960e21b60648201526084016103b1565b83516020015183546000916001600160a01b0316906107e5908590611567565b604051600081818185875af1925050503d8060008114610821576040519150601f19603f3d011682016040523d82523d6000602084013e610826565b606091505b505090508061088c5760405162461bcd60e51b815260206004820152602c60248201527f45786368616e676541756374696f6e3a207472616e736665722062656e65666960448201526b18da585c9e4819985a5b195960a21b60648201526084016103b1565b6001840180546001600160a01b03908116600090815260038701602052604080822091909155600480546005549454925163fc25badb60e01b81529084169463fc25badb946108e6948f94928216939116918e91016114af565b600060405180830381600087803b15801561090057600080fd5b505af1158015610914573d6000803e3d6000fd5b5050600554604051636936f22560e01b81526001600160a01b039091169250636936f225915061094b90899060009060040161147d565b600060405180830381600087803b15801561096557600080fd5b505af1158015610979573d6000803e3d6000fd5b50505050600284015460005b610990600183611567565b8111610a09576109c9888760020183815481106109af576109af6115c5565b6000918252602090912001546001600160a01b031661122d565b8560020181815481106109de576109de6115c5565b600091825260209091200180546001600160a01b031916905580610a018161157e565b915050610985565b50505050505050505050565b610a1d610355565b6001600160a01b0316610a386000546001600160a01b031690565b6001600160a01b031614610a5e5760405162461bcd60e51b81526004016103b1906114d9565b610a6860006112b7565b565b610a7b81610a76610355565b61122d565b7f0ba6f12b978882904e7444c7a8fcadd2d9f692a6a97aa18e5fb44c3bbc58012381610aa5610355565b604080519283526001600160a01b0390911660208301520160405180910390a150565b610ad181611122565b6000818152600260205260409020600401544210610b3b5760405162461bcd60e51b815260206004820152602160248201527f45786368616e676541756374696f6e3a2061756374696f6e20697320656e64656044820152601960fa1b60648201526084016103b1565b60008181526003602052604090208054610be557600082815260026020526040902060030154341015610bcd5760405162461bcd60e51b815260206004820152603460248201527f45786368616e676541756374696f6e3a206269642076616c7565206973206c6f604482015273776572207468616e20737461727420707269636560601b60648201526084016103b1565b610bd78134611307565b610be18134611339565b5050565b3460006003830181610bf5610355565b6001600160a01b0316815260208101919091526040016000205490508015610c5157610c21818361150e565b915081836003016000610c32610355565b6001600160a01b03168152602081019190915260400160002055610c5b565b610c5b8383611339565b8254821015610cd25760405162461bcd60e51b815260206004820152603a60248201527f45786368616e676541756374696f6e3a206269642076616c7565206973206c6f60448201527f776572207468616e20746865206869676865737420707269636500000000000060648201526084016103b1565b610cdc8383611307565b50505050565b6040516331a9108f60e11b81526004810184905284906000906001600160a01b03831690636352211e9060240160206040518083038186803b158015610d2757600080fd5b505afa158015610d3b573d6000803e3d6000fd5b505050506040513d601f19601f82011682018060405250810190610d5f91906113bf565b9050806001600160a01b0316610d73610355565b6001600160a01b031614610dc95760405162461bcd60e51b815260206004820152601c60248201527f43616c6c6572206973206e6f74206f776e6572206f6620746f6b656e0000000060448201526064016103b1565b6000610dd5844261150e565b90506000610de388886110db565b9050600060405180606001604052808a6001600160a01b03168152602001610e09610355565b6001600160a01b0316815260200189815250905060006040518060600160405280838152602001898152602001858152509050806002600085815260200190815260200160002060008201518160000160008201518160000160006101000a8154816001600160a01b0302191690836001600160a01b0316021790555060208201518160010160006101000a8154816001600160a01b0302191690836001600160a01b031602179055506040820151816002015550506020820151816003015560408201518160040155905050600460009054906101000a90046001600160a01b03166001600160a01b031663fc25badb8787600560009054906101000a90046001600160a01b03168d6040518563ffffffff1660e01b8152600401610f3294939291906114af565b600060405180830381600087803b158015610f4c57600080fd5b505af1158015610f60573d6000803e3d6000fd5b5050600554604051636936f22560e01b81526001600160a01b039091169250636936f2259150610f9790869060029060040161147d565b600060405180830381600087803b158015610fb157600080fd5b505af1158015610fc5573d6000803e3d6000fd5b505050507f7b8d82ee5d74f2aa252cdad7950b582d5e47334f9de3af42453313eb38ddc0ab83604051610ffa91815260200190565b60405180910390a150505050505050505050565b611016610355565b6001600160a01b03166110316000546001600160a01b031690565b6001600160a01b0316146110575760405162461bcd60e51b81526004016103b1906114d9565b6001600160a01b0381166110bc5760405162461bcd60e51b815260206004820152602660248201527f4f776e61626c653a206e6577206f776e657220697320746865207a65726f206160448201526564647265737360d01b60648201526084016103b1565b6110c5816112b7565b50565b6001600160a01b03163b151590565b3390565b6040516bffffffffffffffffffffffff19606084901b1660208201526034810182905260009060540160405160208183030381529060405280519060200120905092915050565b60055460405163023aa9ab60e61b8152600481018390526002916001600160a01b031690638eaa6ac09060240160206040518083038186803b15801561116757600080fd5b505afa15801561117b573d6000803e3d6000fd5b505050506040513d601f19601f8201168201806040525081019061119f919061145c565b60028111156111b0576111b06115af565b146110c55760405162461bcd60e51b815260206004820152602860248201527f45786368616e676541756374696f6e3a206173736574206973206e6f7420696e6044820152671030bab1ba34b7b760c11b60648201526084016103b1565b600061121a8284611526565b9392505050565b600061121a8284611548565b60008281526003602081815260408084206001600160a01b0386168552928301909152909120548061125f5750505050565b6040516001600160a01b0384169082156108fc029083906000818181858888f19350505050158015611295573d6000803e3d6000fd5b50506001600160a01b0390911660009081526003909101602052604081205550565b600080546001600160a01b038381166001600160a01b0319831681178455604051919092169283917f8be0079c531659141344cd1fd0a4f28419497f9722a3daafe3b4186f6b6457e09190a35050565b808255611312610355565b60019290920180546001600160a01b0319166001600160a01b039093169290921790915550565b81600201611345610355565b81546001810183556000928352602083200180546001600160a01b0319166001600160a01b039290921691909117905581906003840190611384610355565b6001600160a01b031681526020810191909152604001600020555050565b6000602082840312156113b457600080fd5b813561121a816115db565b6000602082840312156113d157600080fd5b815161121a816115db565b600080604083850312156113ef57600080fd5b82356113fa816115db565b946020939093013593505050565b6000806000806080858703121561141e57600080fd5b8435611429816115db565b966020860135965060408601359560600135945092505050565b60006020828403121561145557600080fd5b5035919050565b60006020828403121561146e57600080fd5b81516003811061121a57600080fd5b82815260408101600383106114a257634e487b7160e01b600052602160045260246000fd5b8260208301529392505050565b6001600160a01b039485168152928416602084015292166040820152606081019190915260800190565b6020808252818101527f4f776e61626c653a2063616c6c6572206973206e6f7420746865206f776e6572604082015260600190565b6000821982111561152157611521611599565b500190565b60008261154357634e487b7160e01b600052601260045260246000fd5b500490565b600081600019048311821515161561156257611562611599565b500290565b60008282101561157957611579611599565b500390565b600060001982141561159257611592611599565b5060010190565b634e487b7160e01b600052601160045260246000fd5b634e487b7160e01b600052602160045260246000fd5b634e487b7160e01b600052603260045260246000fd5b6001600160a01b03811681146110c557600080fdfea264697066735822122088cd4b869414b495220555b9f30337e8a4f3281b10b213bcf8661115adf2cc1064736f6c63430008050033",
  "linkReferences": {},
  "deployedLinkReferences": {}
}