{
  "_format": "hh-sol-artifact-1",
  "contractName": "MockProxyAccess",
  "sourceName": "contracts/test/MockProxyAccess.sol",
  "abi": [
    {
      "anonymous": false,
      "inputs": [
        {
          "indexed": false,
          "internalType": "bytes32",
          "name": "role",
          "type": "bytes32"
        },
        {
          "indexed": false,
          "internalType": "address",
          "name": "op",
          "type": "address"
        }
      ],
      "name": "GrantAccess",
      "type": "event"
    },
    {
      "anonymous": false,
      "inputs": [
        {
          "indexed": true,
          "internalType": "address",
          "name": "previousOwner",
          "type": "address"
        },
        {
          "indexed": true,
          "internalType": "address",
          "name": "newOwner",
          "type": "address"
        }
      ],
      "name": "OwnershipTransferred",
      "type": "event"
    },
    {
      "anonymous": false,
      "inputs": [
        {
          "indexed": false,
          "internalType": "bytes32",
          "name": "role",
          "type": "bytes32"
        },
        {
          "indexed": false,
          "internalType": "address",
          "name": "op",
          "type": "address"
        }
      ],
      "name": "RevokeAccess",
      "type": "event"
    },
    {
      "inputs": [
        {
          "internalType": "bytes32",
          "name": "role",
          "type": "bytes32"
        },
        {
          "internalType": "address",
          "name": "operator",
          "type": "address"
        }
      ],
      "name": "grantAccess",
      "outputs": [],
      "stateMutability": "nonpayable",
      "type": "function"
    },
    {
      "inputs": [
        {
          "internalType": "bytes32",
          "name": "role",
          "type": "bytes32"
        }
      ],
      "name": "hasAccess",
      "outputs": [
        {
          "internalType": "bool",
          "name": "",
          "type": "bool"
        }
      ],
      "stateMutability": "view",
      "type": "function"
    },
    {
      "inputs": [],
      "name": "owner",
      "outputs": [
        {
          "internalType": "address",
          "name": "",
          "type": "address"
        }
      ],
      "stateMutability": "view",
      "type": "function"
    },
    {
      "inputs": [],
      "name": "renounceOwnership",
      "outputs": [],
      "stateMutability": "nonpayable",
      "type": "function"
    },
    {
      "inputs": [
        {
          "internalType": "bytes32",
          "name": "role",
          "type": "bytes32"
        },
        {
          "internalType": "address",
          "name": "op",
          "type": "address"
        }
      ],
      "name": "revokeAccess",
      "outputs": [],
      "stateMutability": "nonpayable",
      "type": "function"
    },
    {
      "inputs": [
        {
          "internalType": "address",
          "name": "newOwner",
          "type": "address"
        }
      ],
      "name": "transferOwnership",
      "outputs": [],
      "stateMutability": "nonpayable",
      "type": "function"
    }
  ],
  "bytecode": "0x608060405234801561001057600080fd5b5061001a3361001f565b61006f565b600080546001600160a01b038381166001600160a01b0319831681178455604051919092169283917f8be0079c531659141344cd1fd0a4f28419497f9722a3daafe3b4186f6b6457e09190a35050565b6104548061007e6000396000f3fe608060405234801561001057600080fd5b50600436106100625760003560e01c806340554c3a14610067578063715018a61461007c5780638d53b208146100845780638da5cb5b14610097578063db83423d146100b7578063f2fde38b146100f9575b600080fd5b61007a6100753660046103bd565b61010c565b005b61007a61014d565b61007a6100923660046103bd565b610183565b6000546040516001600160a01b0390911681526020015b60405180910390f35b6100e96100c53660046103a4565b60009081526001602081815260408084203385529091529091205460ff1615151490565b60405190151581526020016100ae565b61007a610107366004610382565b610216565b6000546001600160a01b0316331461013f5760405162461bcd60e51b8152600401610136906103e9565b60405180910390fd5b61014982826102b1565b5050565b6000546001600160a01b031633146101775760405162461bcd60e51b8152600401610136906103e9565b6101816000610316565b565b6000546001600160a01b031633146101ad5760405162461bcd60e51b8152600401610136906103e9565b60008281526001602090815260408083206001600160a01b03851680855290835292819020805460ff191690558051858152918201929092527fc741014471ca09255f0d4e94d613614ecda9600bf3f62dfe07f7f0625295937791015b60405180910390a15050565b6000546001600160a01b031633146102405760405162461bcd60e51b8152600401610136906103e9565b6001600160a01b0381166102a55760405162461bcd60e51b815260206004820152602660248201527f4f776e61626c653a206e6577206f776e657220697320746865207a65726f206160448201526564647265737360d01b6064820152608401610136565b6102ae81610316565b50565b60008281526001602081815260408084206001600160a01b03861680865290835293819020805460ff19169093179092558151858152908101929092527fd1d8da25c55265be24662c7f358eccc54cc8aa4e2251c1f90ff83ea4b7d0507c910161020a565b600080546001600160a01b038381166001600160a01b0319831681178455604051919092169283917f8be0079c531659141344cd1fd0a4f28419497f9722a3daafe3b4186f6b6457e09190a35050565b80356001600160a01b038116811461037d57600080fd5b919050565b60006020828403121561039457600080fd5b61039d82610366565b9392505050565b6000602082840312156103b657600080fd5b5035919050565b600080604083850312156103d057600080fd5b823591506103e060208401610366565b90509250929050565b6020808252818101527f4f776e61626c653a2063616c6c6572206973206e6f7420746865206f776e657260408201526060019056fea2646970667358221220b87bd21e86521644a8abc01c036f91253cf9b94bc7bbb51723db06158c75547764736f6c63430008050033",
  "linkReferences": {},
  "deployedLinkReferences": {}
}