{
  "_format": "hh-sol-artifact-1",
  "contractName": "MockHashAsset",
  "sourceName": "contracts/test/MockHashAsset.sol",
  "abi": [
    {
      "inputs": [
        {
          "components": [
            {
              "internalType": "address",
              "name": "token",
              "type": "address"
            },
            {
              "internalType": "address payable",
              "name": "seller",
              "type": "address"
            },
            {
              "internalType": "uint256",
              "name": "tokenId",
              "type": "uint256"
            }
          ],
          "internalType": "struct ExchangeDomain.AssetDomain",
          "name": "domain",
          "type": "tuple"
        }
      ],
      "name": "hashKeyWithDomain",
      "outputs": [
        {
          "internalType": "bytes32",
          "name": "",
          "type": "bytes32"
        }
      ],
      "stateMutability": "pure",
      "type": "function"
    },
    {
      "inputs": [
        {
          "internalType": "address",
          "name": "token",
          "type": "address"
        },
        {
          "internalType": "uint256",
          "name": "tokenId",
          "type": "uint256"
        }
      ],
      "name": "hashKeyWithToken",
      "outputs": [
        {
          "internalType": "bytes32",
          "name": "",
          "type": "bytes32"
        }
      ],
      "stateMutability": "pure",
      "type": "function"
    }
  ],
  "bytecode": "0x608060405234801561001057600080fd5b506101d3806100206000396000f3fe608060405234801561001057600080fd5b50600436106100365760003560e01c8063a43adefb1461003b578063d85ea9f814610060575b600080fd5b61004e61004936600461015b565b610073565b60405190815260200160405180910390f35b61004e61006e366004610185565b6100be565b60408051606084901b6bffffffffffffffffffffffff1916602080830191909152603480830185905283518084039091018152605490920190925280519101206000905b9392505050565b60006100c9826100cf565b92915050565b60006100de6020830183610140565b6040805160609290921b6bffffffffffffffffffffffff191660208301528301356034820152605401604051602081830303815290604052805190602001209050919050565b80356001600160a01b038116811461013b57600080fd5b919050565b60006020828403121561015257600080fd5b6100b782610124565b6000806040838503121561016e57600080fd5b61017783610124565b946020939093013593505050565b60006060828403121561019757600080fd5b5091905056fea2646970667358221220b79bb843d2de498f427bd29b2dfa0e808cfadafc7db60bc4946bcd0a65e0691564736f6c63430008050033",
  "linkReferences": {},
  "deployedLinkReferences": {}
}