{
  "_format": "hh-sol-artifact-1",
  "contractName": "ERC721Land",
  "sourceName": "contracts/token/ERC721Land.sol",
  "abi": [
    {
      "inputs": [
        {
          "internalType": "string",
          "name": "_name",
          "type": "string"
        },
        {
          "internalType": "string",
          "name": "_symbol",
          "type": "string"
        },
        {
          "internalType": "address",
          "name": "_transferProxy",
          "type": "address"
        }
      ],
      "stateMutability": "nonpayable",
      "type": "constructor"
    },
    {
      "anonymous": false,
      "inputs": [
        {
          "indexed": true,
          "internalType": "address",
          "name": "owner",
          "type": "address"
        },
        {
          "indexed": true,
          "internalType": "address",
          "name": "approved",
          "type": "address"
        },
        {
          "indexed": true,
          "internalType": "uint256",
          "name": "tokenId",
          "type": "uint256"
        }
      ],
      "name": "Approval",
      "type": "event"
    },
    {
      "anonymous": false,
      "inputs": [
        {
          "indexed": true,
          "internalType": "address",
          "name": "owner",
          "type": "address"
        },
        {
          "indexed": true,
          "internalType": "address",
          "name": "operator",
          "type": "address"
        },
        {
          "indexed": false,
          "internalType": "bool",
          "name": "approved",
          "type": "bool"
        }
      ],
      "name": "ApprovalForAll",
      "type": "event"
    },
    {
      "anonymous": false,
      "inputs": [
        {
          "indexed": false,
          "internalType": "bytes32",
          "name": "role",
          "type": "bytes32"
        },
        {
          "indexed": false,
          "internalType": "address",
          "name": "op",
          "type": "address"
        }
      ],
      "name": "GrantAccess",
      "type": "event"
    },
    {
      "anonymous": false,
      "inputs": [
        {
          "indexed": true,
          "internalType": "address",
          "name": "minter",
          "type": "address"
        },
        {
          "indexed": true,
          "internalType": "uint256",
          "name": "tokenId",
          "type": "uint256"
        }
      ],
      "name": "MintToken",
      "type": "event"
    },
    {
      "anonymous": false,
      "inputs": [
        {
          "indexed": true,
          "internalType": "address",
          "name": "previousOwner",
          "type": "address"
        },
        {
          "indexed": true,
          "internalType": "address",
          "name": "newOwner",
          "type": "address"
        }
      ],
      "name": "OwnershipTransferred",
      "type": "event"
    },
    {
      "anonymous": false,
      "inputs": [
        {
          "indexed": false,
          "internalType": "bytes32",
          "name": "role",
          "type": "bytes32"
        },
        {
          "indexed": false,
          "internalType": "address",
          "name": "op",
          "type": "address"
        }
      ],
      "name": "RevokeAccess",
      "type": "event"
    },
    {
      "anonymous": false,
      "inputs": [
        {
          "indexed": true,
          "internalType": "address",
          "name": "from",
          "type": "address"
        },
        {
          "indexed": true,
          "internalType": "address",
          "name": "to",
          "type": "address"
        },
        {
          "indexed": true,
          "internalType": "uint256",
          "name": "tokenId",
          "type": "uint256"
        }
      ],
      "name": "Transfer",
      "type": "event"
    },
    {
      "inputs": [],
      "name": "TRANSFER_ROLE",
      "outputs": [
        {
          "internalType": "bytes32",
          "name": "",
          "type": "bytes32"
        }
      ],
      "stateMutability": "view",
      "type": "function"
    },
    {
      "inputs": [
        {
          "internalType": "address",
          "name": "to",
          "type": "address"
        },
        {
          "internalType": "uint256",
          "name": "tokenId",
          "type": "uint256"
        }
      ],
      "name": "approve",
      "outputs": [],
      "stateMutability": "nonpayable",
      "type": "function"
    },
    {
      "inputs": [
        {
          "internalType": "address",
          "name": "owner",
          "type": "address"
        }
      ],
      "name": "balanceOf",
      "outputs": [
        {
          "internalType": "uint256",
          "name": "",
          "type": "uint256"
        }
      ],
      "stateMutability": "view",
      "type": "function"
    },
    {
      "inputs": [
        {
          "internalType": "uint256",
          "name": "tokenId",
          "type": "uint256"
        }
      ],
      "name": "getApproved",
      "outputs": [
        {
          "internalType": "address",
          "name": "",
          "type": "address"
        }
      ],
      "stateMutability": "view",
      "type": "function"
    },
    {
      "inputs": [
        {
          "internalType": "bytes32",
          "name": "role",
          "type": "bytes32"
        },
        {
          "internalType": "address",
          "name": "operator",
          "type": "address"
        }
      ],
      "name": "grantAccess",
      "outputs": [],
      "stateMutability": "nonpayable",
      "type": "function"
    },
    {
      "inputs": [
        {
          "internalType": "bytes32",
          "name": "role",
          "type": "bytes32"
        }
      ],
      "name": "hasAccess",
      "outputs": [
        {
          "internalType": "bool",
          "name": "",
          "type": "bool"
        }
      ],
      "stateMutability": "view",
      "type": "function"
    },
    {
      "inputs": [
        {
          "internalType": "address",
          "name": "owner",
          "type": "address"
        },
        {
          "internalType": "address",
          "name": "operator",
          "type": "address"
        }
      ],
      "name": "isApprovedForAll",
      "outputs": [
        {
          "internalType": "bool",
          "name": "",
          "type": "bool"
        }
      ],
      "stateMutability": "view",
      "type": "function"
    },
    {
      "inputs": [
        {
          "internalType": "address",
          "name": "to",
          "type": "address"
        },
        {
          "internalType": "string",
          "name": "tokenUri",
          "type": "string"
        }
      ],
      "name": "mint",
      "outputs": [
        {
          "internalType": "uint256",
          "name": "",
          "type": "uint256"
        }
      ],
      "stateMutability": "nonpayable",
      "type": "function"
    },
    {
      "inputs": [],
      "name": "name",
      "outputs": [
        {
          "internalType": "string",
          "name": "",
          "type": "string"
        }
      ],
      "stateMutability": "view",
      "type": "function"
    },
    {
      "inputs": [],
      "name": "owner",
      "outputs": [
        {
          "internalType": "address",
          "name": "",
          "type": "address"
        }
      ],
      "stateMutability": "view",
      "type": "function"
    },
    {
      "inputs": [
        {
          "internalType": "uint256",
          "name": "tokenId",
          "type": "uint256"
        }
      ],
      "name": "ownerOf",
      "outputs": [
        {
          "internalType": "address",
          "name": "",
          "type": "address"
        }
      ],
      "stateMutability": "view",
      "type": "function"
    },
    {
      "inputs": [],
      "name": "renounceOwnership",
      "outputs": [],
      "stateMutability": "nonpayable",
      "type": "function"
    },
    {
      "inputs": [
        {
          "internalType": "bytes32",
          "name": "role",
          "type": "bytes32"
        },
        {
          "internalType": "address",
          "name": "op",
          "type": "address"
        }
      ],
      "name": "revokeAccess",
      "outputs": [],
      "stateMutability": "nonpayable",
      "type": "function"
    },
    {
      "inputs": [
        {
          "internalType": "address",
          "name": "from",
          "type": "address"
        },
        {
          "internalType": "address",
          "name": "to",
          "type": "address"
        },
        {
          "internalType": "uint256",
          "name": "tokenId",
          "type": "uint256"
        }
      ],
      "name": "safeTransferFrom",
      "outputs": [],
      "stateMutability": "nonpayable",
      "type": "function"
    },
    {
      "inputs": [
        {
          "internalType": "address",
          "name": "from",
          "type": "address"
        },
        {
          "internalType": "address",
          "name": "to",
          "type": "address"
        },
        {
          "internalType": "uint256",
          "name": "tokenId",
          "type": "uint256"
        },
        {
          "internalType": "bytes",
          "name": "_data",
          "type": "bytes"
        }
      ],
      "name": "safeTransferFrom",
      "outputs": [],
      "stateMutability": "nonpayable",
      "type": "function"
    },
    {
      "inputs": [
        {
          "internalType": "address",
          "name": "operator",
          "type": "address"
        },
        {
          "internalType": "bool",
          "name": "approved",
          "type": "bool"
        }
      ],
      "name": "setApprovalForAll",
      "outputs": [],
      "stateMutability": "nonpayable",
      "type": "function"
    },
    {
      "inputs": [
        {
          "internalType": "bytes4",
          "name": "interfaceId",
          "type": "bytes4"
        }
      ],
      "name": "supportsInterface",
      "outputs": [
        {
          "internalType": "bool",
          "name": "",
          "type": "bool"
        }
      ],
      "stateMutability": "view",
      "type": "function"
    },
    {
      "inputs": [],
      "name": "symbol",
      "outputs": [
        {
          "internalType": "string",
          "name": "",
          "type": "string"
        }
      ],
      "stateMutability": "view",
      "type": "function"
    },
    {
      "inputs": [
        {
          "internalType": "uint256",
          "name": "index",
          "type": "uint256"
        }
      ],
      "name": "tokenByIndex",
      "outputs": [
        {
          "internalType": "uint256",
          "name": "",
          "type": "uint256"
        }
      ],
      "stateMutability": "view",
      "type": "function"
    },
    {
      "inputs": [
        {
          "internalType": "address",
          "name": "owner",
          "type": "address"
        },
        {
          "internalType": "uint256",
          "name": "index",
          "type": "uint256"
        }
      ],
      "name": "tokenOfOwnerByIndex",
      "outputs": [
        {
          "internalType": "uint256",
          "name": "",
          "type": "uint256"
        }
      ],
      "stateMutability": "view",
      "type": "function"
    },
    {
      "inputs": [
        {
          "internalType": "uint256",
          "name": "tokenId",
          "type": "uint256"
        }
      ],
      "name": "tokenURI",
      "outputs": [
        {
          "internalType": "string",
          "name": "",
          "type": "string"
        }
      ],
      "stateMutability": "view",
      "type": "function"
    },
    {
      "inputs": [
        {
          "internalType": "uint256",
          "name": "tokenId",
          "type": "uint256"
        }
      ],
      "name": "tokenUri",
      "outputs": [
        {
          "internalType": "string",
          "name": "",
          "type": "string"
        }
      ],
      "stateMutability": "view",
      "type": "function"
    },
    {
      "inputs": [],
      "name": "totalSupply",
      "outputs": [
        {
          "internalType": "uint256",
          "name": "",
          "type": "uint256"
        }
      ],
      "stateMutability": "view",
      "type": "function"
    },
    {
      "inputs": [
        {
          "internalType": "address",
          "name": "from",
          "type": "address"
        },
        {
          "internalType": "address",
          "name": "to",
          "type": "address"
        },
        {
          "internalType": "uint256",
          "name": "tokenId",
          "type": "uint256"
        }
      ],
      "name": "transferFrom",
      "outputs": [],
      "stateMutability": "nonpayable",
      "type": "function"
    },
    {
      "inputs": [
        {
          "internalType": "address",
          "name": "newOwner",
          "type": "address"
        }
      ],
      "name": "transferOwnership",
      "outputs": [],
      "stateMutability": "nonpayable",
      "type": "function"
    }
  ],
  "bytecode": "0x60806040523480156200001157600080fd5b506040516200224c3803806200224c8339810160408190526200003491620002d3565b8251839083906200004d90600090602085019062000176565b5080516200006390600190602084019062000176565b505050620000806200007a620000b560201b60201c565b620000b9565b620000ac7f8502233096d909befbda0999bb8ea2f3a6be3c138b9fbf003752a4c8bce86f6c826200010b565b505050620003b3565b3390565b600a80546001600160a01b038381166001600160a01b0319831681179093556040519116919082907f8be0079c531659141344cd1fd0a4f28419497f9722a3daafe3b4186f6b6457e090600090a35050565b6000828152600b602090815260408083206001600160a01b03851680855290835292819020805460ff191660011790558051858152918201929092527fd1d8da25c55265be24662c7f358eccc54cc8aa4e2251c1f90ff83ea4b7d0507c910160405180910390a15050565b828054620001849062000360565b90600052602060002090601f016020900481019282620001a85760008555620001f3565b82601f10620001c357805160ff1916838001178555620001f3565b82800160010185558215620001f3579182015b82811115620001f3578251825591602001919060010190620001d6565b506200020192915062000205565b5090565b5b8082111562000201576000815560010162000206565b600082601f8301126200022e57600080fd5b81516001600160401b03808211156200024b576200024b6200039d565b604051601f8301601f19908116603f011681019082821181831017156200027657620002766200039d565b816040528381526020925086838588010111156200029357600080fd5b600091505b83821015620002b7578582018301518183018401529082019062000298565b83821115620002c95760008385830101525b9695505050505050565b600080600060608486031215620002e957600080fd5b83516001600160401b03808211156200030157600080fd5b6200030f878388016200021c565b945060208601519150808211156200032657600080fd5b5062000335868287016200021c565b604086015190935090506001600160a01b03811681146200035557600080fd5b809150509250925092565b600181811c908216806200037557607f821691505b602082108114156200039757634e487b7160e01b600052602260045260246000fd5b50919050565b634e487b7160e01b600052604160045260246000fd5b611e8980620003c36000396000f3fe608060405234801561001057600080fd5b50600436106101735760003560e01c80636352211e116100de578063a22cb46511610097578063d0def52111610071578063d0def52114610333578063db83423d14610346578063e985e9c514610379578063f2fde38b1461038c57600080fd5b8063a22cb465146102fa578063b88d4fde1461030d578063c87b56dd1461032057600080fd5b80636352211e146102a057806370a08231146102b3578063715018a6146102c65780638d53b208146102ce5780638da5cb5b146102e157806395d89b41146102f257600080fd5b8063206b60f911610130578063206b60f91461021a57806323b872dd146102415780632f745c591461025457806340554c3a1461026757806342842e0e1461027a5780634f6ccce71461028d57600080fd5b806301ffc9a71461017857806306fdde03146101a0578063081812fc146101b5578063095ea7b3146101e05780631675f455146101f557806318160ddd14610208575b600080fd5b61018b610186366004611b39565b61039f565b60405190151581526020015b60405180910390f35b6101a86103ca565b6040516101979190611c0b565b6101c86101c3366004611afd565b61045c565b6040516001600160a01b039091168152602001610197565b6101f36101ee366004611ad3565b6104f6565b005b6101a8610203366004611afd565b61060c565b6008545b604051908152602001610197565b61020c7f8502233096d909befbda0999bb8ea2f3a6be3c138b9fbf003752a4c8bce86f6c81565b6101f361024f36600461197d565b6106ae565b61020c610262366004611ad3565b6106df565b6101f3610275366004611b16565b610775565b6101f361028836600461197d565b6107ad565b61020c61029b366004611afd565b6107c8565b6101c86102ae366004611afd565b61085b565b61020c6102c136600461192f565b6108d2565b6101f3610959565b6101f36102dc366004611b16565b61098f565b600a546001600160a01b03166101c8565b6101a8610a22565b6101f3610308366004611a35565b610a31565b6101f361031b3660046119b9565b610a3c565b6101a861032e366004611afd565b610a74565b61020c610341366004611a71565b610b5c565b61018b610354366004611afd565b6000908152600b6020908152604080832033845290915290205460ff16151560011490565b61018b61038736600461194a565b610bf5565b6101f361039a36600461192f565b610c68565b60006001600160e01b0319821663780e9d6360e01b14806103c457506103c482610d03565b92915050565b6060600080546103d990611d65565b80601f016020809104026020016040519081016040528092919081815260200182805461040590611d65565b80156104525780601f1061042757610100808354040283529160200191610452565b820191906000526020600020905b81548152906001019060200180831161043557829003601f168201915b5050505050905090565b6000818152600260205260408120546001600160a01b03166104da5760405162461bcd60e51b815260206004820152602c60248201527f4552433732313a20617070726f76656420717565727920666f72206e6f6e657860448201526b34b9ba32b73a103a37b5b2b760a11b60648201526084015b60405180910390fd5b506000908152600460205260409020546001600160a01b031690565b60006105018261085b565b9050806001600160a01b0316836001600160a01b0316141561056f5760405162461bcd60e51b815260206004820152602160248201527f4552433732313a20617070726f76616c20746f2063757272656e74206f776e656044820152603960f91b60648201526084016104d1565b336001600160a01b038216148061058b575061058b8133610bf5565b6105fd5760405162461bcd60e51b815260206004820152603860248201527f4552433732313a20617070726f76652063616c6c6572206973206e6f74206f7760448201527f6e6572206e6f7220617070726f76656420666f7220616c6c000000000000000060648201526084016104d1565b6106078383610d53565b505050565b6000818152600c6020526040902080546060919061062990611d65565b80601f016020809104026020016040519081016040528092919081815260200182805461065590611d65565b80156106a25780601f10610677576101008083540402835291602001916106a2565b820191906000526020600020905b81548152906001019060200180831161068557829003601f168201915b50505050509050919050565b6106b83382610dc1565b6106d45760405162461bcd60e51b81526004016104d190611ca5565b610607838383610e98565b60006106ea836108d2565b821061074c5760405162461bcd60e51b815260206004820152602b60248201527f455243373231456e756d657261626c653a206f776e657220696e646578206f7560448201526a74206f6620626f756e647360a81b60648201526084016104d1565b506001600160a01b03919091166000908152600660209081526040808320938352929052205490565b600a546001600160a01b0316331461079f5760405162461bcd60e51b81526004016104d190611c70565b6107a9828261103f565b5050565b61060783838360405180602001604052806000815250610a3c565b60006107d360085490565b82106108365760405162461bcd60e51b815260206004820152602c60248201527f455243373231456e756d657261626c653a20676c6f62616c20696e646578206f60448201526b7574206f6620626f756e647360a01b60648201526084016104d1565b6008828154811061084957610849611e11565b90600052602060002001549050919050565b6000818152600260205260408120546001600160a01b0316806103c45760405162461bcd60e51b815260206004820152602960248201527f4552433732313a206f776e657220717565727920666f72206e6f6e657869737460448201526832b73a103a37b5b2b760b91b60648201526084016104d1565b60006001600160a01b03821661093d5760405162461bcd60e51b815260206004820152602a60248201527f4552433732313a2062616c616e636520717565727920666f7220746865207a65604482015269726f206164647265737360b01b60648201526084016104d1565b506001600160a01b031660009081526003602052604090205490565b600a546001600160a01b031633146109835760405162461bcd60e51b81526004016104d190611c70565b61098d60006110a3565b565b600a546001600160a01b031633146109b95760405162461bcd60e51b81526004016104d190611c70565b6000828152600b602090815260408083206001600160a01b03851680855290835292819020805460ff191690558051858152918201929092527fc741014471ca09255f0d4e94d613614ecda9600bf3f62dfe07f7f0625295937791015b60405180910390a15050565b6060600180546103d990611d65565b6107a93383836110f5565b610a463383610dc1565b610a625760405162461bcd60e51b81526004016104d190611ca5565b610a6e848484846111c4565b50505050565b6000818152600260205260409020546060906001600160a01b0316610af35760405162461bcd60e51b815260206004820152602f60248201527f4552433732314d657461646174613a2055524920717565727920666f72206e6f60448201526e3732bc34b9ba32b73a103a37b5b2b760891b60648201526084016104d1565b6000610b0a60408051602081019091526000815290565b90506000815111610b2a5760405180602001604052806000815250610b55565b80610b34846111f7565b604051602001610b45929190611b9f565b6040516020818303038152906040525b9392505050565b600a546000906001600160a01b03163314610b895760405162461bcd60e51b81526004016104d190611c70565b610b97600d80546001019055565b6000610ba2600d5490565b9050610bae84826112f5565b610bb8818461130f565b60405181906001600160a01b038616907fdcdea898caf5576419f89caf69301592a4758349a0bd62300b58849213420a7290600090a39392505050565b3360009081527f0a1d1818844cd1cb435b1f58baa821febb23dfe0487ae67aa143cacb2b11bba7602052604081205460ff16151560011415610c39575060016103c4565b506001600160a01b0382811660009081526005602090815260408083209385168352929052205460ff166103c4565b600a546001600160a01b03163314610c925760405162461bcd60e51b81526004016104d190611c70565b6001600160a01b038116610cf75760405162461bcd60e51b815260206004820152602660248201527f4f776e61626c653a206e6577206f776e657220697320746865207a65726f206160448201526564647265737360d01b60648201526084016104d1565b610d00816110a3565b50565b60006001600160e01b031982166380ac58cd60e01b1480610d3457506001600160e01b03198216635b5e139f60e01b145b806103c457506301ffc9a760e01b6001600160e01b03198316146103c4565b600081815260046020526040902080546001600160a01b0319166001600160a01b0384169081179091558190610d888261085b565b6001600160a01b03167f8c5be1e5ebec7d5bd14f71427d1e84f3dd0314c0f7b2291e5b200ac8c7c3b92560405160405180910390a45050565b6000818152600260205260408120546001600160a01b0316610e3a5760405162461bcd60e51b815260206004820152602c60248201527f4552433732313a206f70657261746f7220717565727920666f72206e6f6e657860448201526b34b9ba32b73a103a37b5b2b760a11b60648201526084016104d1565b6000610e458361085b565b9050806001600160a01b0316846001600160a01b03161480610e6c5750610e6c8185610bf5565b80610e905750836001600160a01b0316610e858461045c565b6001600160a01b0316145b949350505050565b826001600160a01b0316610eab8261085b565b6001600160a01b031614610f0f5760405162461bcd60e51b815260206004820152602560248201527f4552433732313a207472616e736665722066726f6d20696e636f72726563742060448201526437bbb732b960d91b60648201526084016104d1565b6001600160a01b038216610f715760405162461bcd60e51b8152602060048201526024808201527f4552433732313a207472616e7366657220746f20746865207a65726f206164646044820152637265737360e01b60648201526084016104d1565b610f7c83838361132e565b610f87600082610d53565b6001600160a01b0383166000908152600360205260408120805460019290610fb0908490611d22565b90915550506001600160a01b0382166000908152600360205260408120805460019290610fde908490611cf6565b909155505060008181526002602052604080822080546001600160a01b0319166001600160a01b0386811691821790925591518493918716917fddf252ad1be2c89b69c2b068fc378daa952ba7f163c4a11628f55a4df523b3ef91a4505050565b6000828152600b602090815260408083206001600160a01b03851680855290835292819020805460ff191660011790558051858152918201929092527fd1d8da25c55265be24662c7f358eccc54cc8aa4e2251c1f90ff83ea4b7d0507c9101610a16565b600a80546001600160a01b038381166001600160a01b0319831681179093556040519116919082907f8be0079c531659141344cd1fd0a4f28419497f9722a3daafe3b4186f6b6457e090600090a35050565b816001600160a01b0316836001600160a01b031614156111575760405162461bcd60e51b815260206004820152601960248201527f4552433732313a20617070726f766520746f2063616c6c65720000000000000060448201526064016104d1565b6001600160a01b03838116600081815260056020908152604080832094871680845294825291829020805460ff191686151590811790915591519182527f17307eab39ab6107e8899845ad3d59bd9653f200f220920489ca2b5937696c31910160405180910390a3505050565b6111cf848484610e98565b6111db848484846113e6565b610a6e5760405162461bcd60e51b81526004016104d190611c1e565b60608161121b5750506040805180820190915260018152600360fc1b602082015290565b8160005b8115611245578061122f81611da0565b915061123e9050600a83611d0e565b915061121f565b60008167ffffffffffffffff81111561126057611260611e27565b6040519080825280601f01601f19166020018201604052801561128a576020820181803683370190505b5090505b8415610e905761129f600183611d22565b91506112ac600a86611dbb565b6112b7906030611cf6565b60f81b8183815181106112cc576112cc611e11565b60200101906001600160f81b031916908160001a9053506112ee600a86611d0e565b945061128e565b6107a98282604051806020016040528060008152506114f3565b6000828152600c60209081526040909120825161060792840190611804565b6001600160a01b0383166113895761138481600880546000838152600960205260408120829055600182018355919091527ff3f7a9fe364faab93b216da50a3214154f22a0a2b415b23a84c8169e8b636ee30155565b6113ac565b816001600160a01b0316836001600160a01b0316146113ac576113ac8382611526565b6001600160a01b0382166113c357610607816115c3565b826001600160a01b0316826001600160a01b031614610607576106078282611672565b60006001600160a01b0384163b156114e857604051630a85bd0160e11b81526001600160a01b0385169063150b7a029061142a903390899088908890600401611bce565b602060405180830381600087803b15801561144457600080fd5b505af1925050508015611474575060408051601f3d908101601f1916820190925261147191810190611b56565b60015b6114ce573d8080156114a2576040519150601f19603f3d011682016040523d82523d6000602084013e6114a7565b606091505b5080516114c65760405162461bcd60e51b81526004016104d190611c1e565b805181602001fd5b6001600160e01b031916630a85bd0160e11b149050610e90565b506001949350505050565b6114fd83836116b6565b61150a60008484846113e6565b6106075760405162461bcd60e51b81526004016104d190611c1e565b60006001611533846108d2565b61153d9190611d22565b600083815260076020526040902054909150808214611590576001600160a01b03841660009081526006602090815260408083208584528252808320548484528184208190558352600790915290208190555b5060009182526007602090815260408084208490556001600160a01b039094168352600681528383209183525290812055565b6008546000906115d590600190611d22565b600083815260096020526040812054600880549394509092849081106115fd576115fd611e11565b90600052602060002001549050806008838154811061161e5761161e611e11565b600091825260208083209091019290925582815260099091526040808220849055858252812055600880548061165657611656611dfb565b6001900381819060005260206000200160009055905550505050565b600061167d836108d2565b6001600160a01b039093166000908152600660209081526040808320868452825280832085905593825260079052919091209190915550565b6001600160a01b03821661170c5760405162461bcd60e51b815260206004820181905260248201527f4552433732313a206d696e7420746f20746865207a65726f206164647265737360448201526064016104d1565b6000818152600260205260409020546001600160a01b0316156117715760405162461bcd60e51b815260206004820152601c60248201527f4552433732313a20746f6b656e20616c7265616479206d696e7465640000000060448201526064016104d1565b61177d6000838361132e565b6001600160a01b03821660009081526003602052604081208054600192906117a6908490611cf6565b909155505060008181526002602052604080822080546001600160a01b0319166001600160a01b03861690811790915590518392907fddf252ad1be2c89b69c2b068fc378daa952ba7f163c4a11628f55a4df523b3ef908290a45050565b82805461181090611d65565b90600052602060002090601f0160209004810192826118325760008555611878565b82601f1061184b57805160ff1916838001178555611878565b82800160010185558215611878579182015b8281111561187857825182559160200191906001019061185d565b50611884929150611888565b5090565b5b808211156118845760008155600101611889565b600067ffffffffffffffff808411156118b8576118b8611e27565b604051601f8501601f19908116603f011681019082821181831017156118e0576118e0611e27565b816040528093508581528686860111156118f957600080fd5b858560208301376000602087830101525050509392505050565b80356001600160a01b038116811461192a57600080fd5b919050565b60006020828403121561194157600080fd5b610b5582611913565b6000806040838503121561195d57600080fd5b61196683611913565b915061197460208401611913565b90509250929050565b60008060006060848603121561199257600080fd5b61199b84611913565b92506119a960208501611913565b9150604084013590509250925092565b600080600080608085870312156119cf57600080fd5b6119d885611913565b93506119e660208601611913565b925060408501359150606085013567ffffffffffffffff811115611a0957600080fd5b8501601f81018713611a1a57600080fd5b611a298782356020840161189d565b91505092959194509250565b60008060408385031215611a4857600080fd5b611a5183611913565b915060208301358015158114611a6657600080fd5b809150509250929050565b60008060408385031215611a8457600080fd5b611a8d83611913565b9150602083013567ffffffffffffffff811115611aa957600080fd5b8301601f81018513611aba57600080fd5b611ac98582356020840161189d565b9150509250929050565b60008060408385031215611ae657600080fd5b611aef83611913565b946020939093013593505050565b600060208284031215611b0f57600080fd5b5035919050565b60008060408385031215611b2957600080fd5b8235915061197460208401611913565b600060208284031215611b4b57600080fd5b8135610b5581611e3d565b600060208284031215611b6857600080fd5b8151610b5581611e3d565b60008151808452611b8b816020860160208601611d39565b601f01601f19169290920160200192915050565b60008351611bb1818460208801611d39565b835190830190611bc5818360208801611d39565b01949350505050565b6001600160a01b0385811682528416602082015260408101839052608060608201819052600090611c0190830184611b73565b9695505050505050565b602081526000610b556020830184611b73565b60208082526032908201527f4552433732313a207472616e7366657220746f206e6f6e20455243373231526560408201527131b2b4bb32b91034b6b83632b6b2b73a32b960711b606082015260800190565b6020808252818101527f4f776e61626c653a2063616c6c6572206973206e6f7420746865206f776e6572604082015260600190565b60208082526031908201527f4552433732313a207472616e736665722063616c6c6572206973206e6f74206f6040820152701ddb995c881b9bdc88185c1c1c9bdd9959607a1b606082015260800190565b60008219821115611d0957611d09611dcf565b500190565b600082611d1d57611d1d611de5565b500490565b600082821015611d3457611d34611dcf565b500390565b60005b83811015611d54578181015183820152602001611d3c565b83811115610a6e5750506000910152565b600181811c90821680611d7957607f821691505b60208210811415611d9a57634e487b7160e01b600052602260045260246000fd5b50919050565b6000600019821415611db457611db4611dcf565b5060010190565b600082611dca57611dca611de5565b500690565b634e487b7160e01b600052601160045260246000fd5b634e487b7160e01b600052601260045260246000fd5b634e487b7160e01b600052603160045260246000fd5b634e487b7160e01b600052603260045260246000fd5b634e487b7160e01b600052604160045260246000fd5b6001600160e01b031981168114610d0057600080fdfea26469706673582212203378180d5abd27ffa0be079c07e6ba5b407e70b73d8479c7a2bd47540036a06064736f6c63430008050033",
  "linkReferences": {},
  "deployedLinkReferences": {}
}