{
  "_format": "hh-sol-artifact-1",
  "contractName": "OwnableOperatorRole",
  "sourceName": "contracts/access/OwnableOperatorRole.sol",
  "abi": [
    {
      "anonymous": false,
      "inputs": [
        {
          "indexed": true,
          "internalType": "address",
          "name": "op",
          "type": "address"
        }
      ],
      "name": "AddOperator",
      "type": "event"
    },
    {
      "anonymous": false,
      "inputs": [
        {
          "indexed": true,
          "internalType": "address",
          "name": "previousOwner",
          "type": "address"
        },
        {
          "indexed": true,
          "internalType": "address",
          "name": "newOwner",
          "type": "address"
        }
      ],
      "name": "OwnershipTransferred",
      "type": "event"
    },
    {
      "anonymous": false,
      "inputs": [
        {
          "indexed": true,
          "internalType": "address",
          "name": "op",
          "type": "address"
        }
      ],
      "name": "RemoveOperator",
      "type": "event"
    },
    {
      "inputs": [
        {
          "internalType": "address",
          "name": "op",
          "type": "address"
        }
      ],
      "name": "add",
      "outputs": [],
      "stateMutability": "nonpayable",
      "type": "function"
    },
    {
      "inputs": [
        {
          "internalType": "address",
          "name": "op",
          "type": "address"
        }
      ],
      "name": "isOperator",
      "outputs": [
        {
          "internalType": "bool",
          "name": "",
          "type": "bool"
        }
      ],
      "stateMutability": "view",
      "type": "function"
    },
    {
      "inputs": [],
      "name": "owner",
      "outputs": [
        {
          "internalType": "address",
          "name": "",
          "type": "address"
        }
      ],
      "stateMutability": "view",
      "type": "function"
    },
    {
      "inputs": [
        {
          "internalType": "address",
          "name": "op",
          "type": "address"
        }
      ],
      "name": "remove",
      "outputs": [],
      "stateMutability": "nonpayable",
      "type": "function"
    },
    {
      "inputs": [],
      "name": "renounceOwnership",
      "outputs": [],
      "stateMutability": "nonpayable",
      "type": "function"
    },
    {
      "inputs": [
        {
          "internalType": "address",
          "name": "newOwner",
          "type": "address"
        }
      ],
      "name": "transferOwnership",
      "outputs": [],
      "stateMutability": "nonpayable",
      "type": "function"
    }
  ],
  "bytecode": "0x608060405234801561001057600080fd5b5061001a3361001f565b61006f565b600080546001600160a01b038381166001600160a01b0319831681178455604051919092169283917f8be0079c531659141344cd1fd0a4f28419497f9722a3daafe3b4186f6b6457e09190a35050565b6104408061007e6000396000f3fe608060405234801561001057600080fd5b50600436106100625760003560e01c80630a3b0a4f1461006757806329092d0e1461007c5780636d70f7ae1461008f578063715018a6146100d65780638da5cb5b146100de578063f2fde38b146100f9575b600080fd5b61007a6100753660046103a5565b61010c565b005b61007a61008a3660046103a5565b61018e565b6100c161009d3660046103a5565b6001600160a01b031660009081526001602081905260409091205460ff1615151490565b60405190151581526020015b60405180910390f35b61007a610284565b6000546040516001600160a01b0390911681526020016100cd565b61007a6101073660046103a5565b6102ba565b6000546001600160a01b0316331461013f5760405162461bcd60e51b8152600401610136906103d5565b60405180910390fd5b6001600160a01b0381166000818152600160208190526040808320805460ff1916909217909155517f4c141abccf173677929dea054f218ed87362117834a8869ec9f68d8bdaaea1dc9190a250565b6000546001600160a01b031633146101b85760405162461bcd60e51b8152600401610136906103d5565b6001600160a01b03811660009081526001602081905260409091205460ff1615151461023b5760405162461bcd60e51b815260206004820152602c60248201527f4f776e61626c654f70657261746f72526f6c653a2074686973206973206e6f7460448201526b1030b71037b832b930ba37b960a11b6064820152608401610136565b6001600160a01b038116600081815260016020526040808220805460ff19169055517f6b4be2dd49eba45ba43390fbe7da13e2b965d255db41d6a0fcf6d2e15ac1fccb9190a250565b6000546001600160a01b031633146102ae5760405162461bcd60e51b8152600401610136906103d5565b6102b86000610355565b565b6000546001600160a01b031633146102e45760405162461bcd60e51b8152600401610136906103d5565b6001600160a01b0381166103495760405162461bcd60e51b815260206004820152602660248201527f4f776e61626c653a206e6577206f776e657220697320746865207a65726f206160448201526564647265737360d01b6064820152608401610136565b61035281610355565b50565b600080546001600160a01b038381166001600160a01b0319831681178455604051919092169283917f8be0079c531659141344cd1fd0a4f28419497f9722a3daafe3b4186f6b6457e09190a35050565b6000602082840312156103b757600080fd5b81356001600160a01b03811681146103ce57600080fd5b9392505050565b6020808252818101527f4f776e61626c653a2063616c6c6572206973206e6f7420746865206f776e657260408201526060019056fea2646970667358221220799a83b4576825786961c94ab6d9cc743f9ee2832fb8f3e331c3fec29bee5d1e64736f6c63430008050033",
  "linkReferences": {},
  "deployedLinkReferences": {}
}