{
  "_format": "hh-sol-artifact-1",
  "contractName": "MockExchangeCore",
  "sourceName": "contracts/test/MockExchangeCore.sol",
  "abi": [
    {
      "anonymous": false,
      "inputs": [
        {
          "indexed": true,
          "internalType": "address",
          "name": "previousOwner",
          "type": "address"
        },
        {
          "indexed": true,
          "internalType": "address",
          "name": "newOwner",
          "type": "address"
        }
      ],
      "name": "OwnershipTransferred",
      "type": "event"
    },
    {
      "anonymous": false,
      "inputs": [
        {
          "indexed": false,
          "internalType": "uint256",
          "name": "amount",
          "type": "uint256"
        },
        {
          "indexed": false,
          "internalType": "address",
          "name": "sender",
          "type": "address"
        }
      ],
      "name": "Receive",
      "type": "event"
    },
    {
      "anonymous": false,
      "inputs": [
        {
          "indexed": false,
          "internalType": "uint256",
          "name": "amount",
          "type": "uint256"
        },
        {
          "indexed": false,
          "internalType": "address",
          "name": "caller",
          "type": "address"
        }
      ],
      "name": "Withdraw",
      "type": "event"
    },
    {
      "inputs": [],
      "name": "balance",
      "outputs": [
        {
          "internalType": "uint256",
          "name": "",
          "type": "uint256"
        }
      ],
      "stateMutability": "view",
      "type": "function"
    },
    {
      "inputs": [],
      "name": "owner",
      "outputs": [
        {
          "internalType": "address",
          "name": "",
          "type": "address"
        }
      ],
      "stateMutability": "view",
      "type": "function"
    },
    {
      "inputs": [],
      "name": "renounceOwnership",
      "outputs": [],
      "stateMutability": "nonpayable",
      "type": "function"
    },
    {
      "inputs": [
        {
          "internalType": "address",
          "name": "newOwner",
          "type": "address"
        }
      ],
      "name": "transferOwnership",
      "outputs": [],
      "stateMutability": "nonpayable",
      "type": "function"
    },
    {
      "inputs": [
        {
          "internalType": "uint256",
          "name": "amount",
          "type": "uint256"
        }
      ],
      "name": "withdraw",
      "outputs": [],
      "stateMutability": "nonpayable",
      "type": "function"
    },
    {
      "stateMutability": "payable",
      "type": "receive"
    }
  ],
  "bytecode": "0x608060405234801561001057600080fd5b5061002161001c610026565b610065565b6100c8565b6000610044336001600160a01b03166100b560201b6104521760201c565b1561004e57503290565b6100606100c460201b6104611760201c565b905090565b600080546001600160a01b038381166001600160a01b0319831681178455604051919092169283917f8be0079c531659141344cd1fd0a4f28419497f9722a3daafe3b4186f6b6457e09190a35050565b6001600160a01b03163b151590565b3390565b6105ae806100d76000396000f3fe60806040526004361061004e5760003560e01c80632e1a7d4d146100bc578063715018a6146100de5780638da5cb5b146100f3578063b69ef8a814610120578063f2fde38b1461014457600080fd5b366100b75734600160008282546100659190610533565b909155507f679c2c72b93b6dbe9187487c5fd3c79f94582c5bfafd6d4e32164038479a2258905034610095610164565b604080519283526001600160a01b0390911660208301520160405180910390a1005b600080fd5b3480156100c857600080fd5b506100dc6100d73660046104e5565b610177565b005b3480156100ea57600080fd5b506100dc610343565b3480156100ff57600080fd5b506000546040516001600160a01b0390911681526020015b60405180910390f35b34801561012c57600080fd5b5061013660015481565b604051908152602001610117565b34801561015057600080fd5b506100dc61015f3660046104b5565b610398565b6000333b1561017257503290565b503390565b61017f610164565b6001600160a01b031661019a6000546001600160a01b031690565b6001600160a01b0316146101c95760405162461bcd60e51b81526004016101c0906104fe565b60405180910390fd5b6001548111156102415760405162461bcd60e51b815260206004820152603960248201527f45786368616e6765436f72652377697468647261773a20616d6f756e74206d7560448201527f7374206265206c6573736572207468616e2062616c616e63650000000000000060648201526084016101c0565b600061024b610164565b6001600160a01b03168260405160006040518083038185875af1925050503d8060008114610295576040519150601f19603f3d011682016040523d82523d6000602084013e61029a565b606091505b50509050806102dd5760405162461bcd60e51b815260206004820152600f60248201526e15da5d1a191c985dc819985a5b1959608a1b60448201526064016101c0565b81600160008282546102ef919061054b565b909155507f8353ffcac0876ad14e226d9783c04540bfebf13871e868157d2a391cad98e91890508261031f610164565b604080519283526001600160a01b0390911660208301520160405180910390a15050565b61034b610164565b6001600160a01b03166103666000546001600160a01b031690565b6001600160a01b03161461038c5760405162461bcd60e51b81526004016101c0906104fe565b6103966000610465565b565b6103a0610164565b6001600160a01b03166103bb6000546001600160a01b031690565b6001600160a01b0316146103e15760405162461bcd60e51b81526004016101c0906104fe565b6001600160a01b0381166104465760405162461bcd60e51b815260206004820152602660248201527f4f776e61626c653a206e6577206f776e657220697320746865207a65726f206160448201526564647265737360d01b60648201526084016101c0565b61044f81610465565b50565b6001600160a01b03163b151590565b3390565b600080546001600160a01b038381166001600160a01b0319831681178455604051919092169283917f8be0079c531659141344cd1fd0a4f28419497f9722a3daafe3b4186f6b6457e09190a35050565b6000602082840312156104c757600080fd5b81356001600160a01b03811681146104de57600080fd5b9392505050565b6000602082840312156104f757600080fd5b5035919050565b6020808252818101527f4f776e61626c653a2063616c6c6572206973206e6f7420746865206f776e6572604082015260600190565b6000821982111561054657610546610562565b500190565b60008282101561055d5761055d610562565b500390565b634e487b7160e01b600052601160045260246000fdfea26469706673582212206e2228eabbd8e2aee4dc6cabebc624a1ba784c51140d558504a3f1d85dbe825f64736f6c63430008050033",
  "linkReferences": {},
  "deployedLinkReferences": {}
}