{
  "_format": "hh-sol-artifact-1",
  "contractName": "Exchange",
  "sourceName": "contracts/exchange/Exchange.sol",
  "abi": [
    {
      "inputs": [
        {
          "internalType": "address",
          "name": "_auct",
          "type": "address"
        },
        {
          "internalType": "address",
          "name": "_sell",
          "type": "address"
        },
        {
          "internalType": "address",
          "name": "_holder",
          "type": "address"
        }
      ],
      "stateMutability": "nonpayable",
      "type": "constructor"
    },
    {
      "anonymous": false,
      "inputs": [
        {
          "indexed": false,
          "internalType": "address",
          "name": "token",
          "type": "address"
        },
        {
          "indexed": false,
          "internalType": "uint256",
          "name": "tokenId",
          "type": "uint256"
        },
        {
          "indexed": false,
          "internalType": "enum ExchangeState.AssetType",
          "name": "assetType",
          "type": "uint8"
        }
      ],
      "name": "Bid",
      "type": "event"
    },
    {
      "inputs": [
        {
          "internalType": "address",
          "name": "token",
          "type": "address"
        },
        {
          "internalType": "uint256",
          "name": "tokenId",
          "type": "uint256"
        }
      ],
      "name": "bid",
      "outputs": [],
      "stateMutability": "payable",
      "type": "function"
    }
  ],
  "bytecode": "0x608060405234801561001057600080fd5b5060405161040e38038061040e83398101604081905261002f9161008d565b600080546001600160a01b039485166001600160a01b0319918216179091556001805493851693821693909317909255600280549190931691161790556100d0565b80516001600160a01b038116811461008857600080fd5b919050565b6000806000606084860312156100a257600080fd5b6100ab84610071565b92506100b960208501610071565b91506100c760408501610071565b90509250925092565b61032f806100df6000396000f3fe60806040526004361061001e5760003560e01c806359d667a514610023575b600080fd5b610036610031366004610240565b610038565b005b60408051606084901b6bffffffffffffffffffffffff19166020808301919091526034808301859052835180840390910181526054909201909252805191012060009060025460405163023aa9ab60e61b8152600481018390529192506000916001600160a01b0390911690638eaa6ac09060240160206040518083038186803b1580156100c557600080fd5b505afa1580156100d9573d6000803e3d6000fd5b505050506040513d601f19601f820116820180604052508101906100fd9190610278565b90506000816002811115610113576101136102e3565b141561011f5750505050565b6001816002811115610133576101336102e3565b141561019e5760015460405163cc44561160e01b8152600481018490526001600160a01b039091169063cc4456119034906024016000604051808303818588803b15801561018057600080fd5b505af1158015610194573d6000803e3d6000fd5b50505050506101ff565b6000546040516304abdd8f60e51b8152600481018490526001600160a01b039091169063957bb1e09034906024016000604051808303818588803b1580156101e557600080fd5b505af11580156101f9573d6000803e3d6000fd5b50505050505b7fdc3617817439656072054edce13718b1b80a9d2137c24d98b12b6dd37b02297f848483604051610232939291906102a0565b60405180910390a150505050565b6000806040838503121561025357600080fd5b82356001600160a01b038116811461026a57600080fd5b946020939093013593505050565b60006020828403121561028a57600080fd5b81516003811061029957600080fd5b9392505050565b6001600160a01b03841681526020810183905260608101600383106102d557634e487b7160e01b600052602160045260246000fd5b826040830152949350505050565b634e487b7160e01b600052602160045260246000fdfea264697066735822122018457d4af0635456909c51ce9c50f83ce6c501b8edcf223b7c02c341dc9600df64736f6c63430008050033",
  "linkReferences": {},
  "deployedLinkReferences": {}
}